:100000000C941C180C9444180C9444180C94441828
:100010000C9444180C9444180C9444180C944418F0
:100020000C9444180C9444180C9444180C944418E0
:100030000C9444180C9444180C9444180C944418D0
:100040000C9444180C9444180C9444180C944418C0
:100050000C9444180C9444180C9444180C94C43018
:100060000C9444180C9444180C9444180C944418A0
:100070000C9444180C9444180C9444180C94441890
:100080000C94F2220C9444180C9444180C944418C8
:100090000C9444180C9444180C9444180C94441870
:1000A0000C9444180C9444180C944418932FB72FB4
:1000B000B12FC32F182F252F302F3C2FAB2FC92F37
:1000C000442F642F6C2F832F892FE82EBD2FB8016A
:1000D0004B00FF7F020000800000010000010000D3
:1000E00001000001FF0304FF0304FE0506FE0506F0
:1000F000FF0708FF0708070D06070D060B0E040B88
:100100000E040D10010E1001121203131203151428
:10011000051514051616071718070A00090000022E
:1001200000000200000200000200030200060200BC
:100130000902000C02000F0200120200140200006B
:10014000090000000000000000000000000103039F
:100150000103030105050105050107070107070163
:100160000009DC00B400DC005A00DC005A00DC00AE
:10017000B400DC00B4001501B400DC00B4001501CB
:10018000B400DC00B40000800002040608090A0A7A
:100190000B0B0C0C0C0D0D0D0D0D0D0D0D0D0D0D96
:1001A0000D0C0C0C0B0B0A0908060402007F4A0216
:1001B0007D4A027B4A02794A02774A02754A0273F3
:1001C0004A02714A026F4A026D49026B490269494B
:1001D000026749026549006349006149005F4900BF
:1001E0005D49005B49005949005748005548025392
:1001F00048025148024F48024D48024B48024948C4
:10020000024748024548014347014147013F470132
:100210003D47013B47013947013747013547023325
:1002200047023147022F46022D46022B460229463D
:10023000022746022546002346002146001F4600AD
:100240001D46001B450019450017450015450213C2
:1002500045021145020F45020D45020B45020945B5
:1002600002074402054401034401014401FF440123
:10027000FD4401FB4401F94401F74401F54401F355
:100280004302F14302EF4302ED4302EB430200005D
:100290000288011400AF00140000802C00320021FD
:1002A0000032003700320000801003320093023227
:1002B000000B023200700332005D01320026013271
:1002C00000EE0132000080B8014B00EE014B002A25
:1002D000024B00100396006E0296000080E402F2CA
:1002E0000100009000E402220000004800E4022225
:1002F0000000004800E402B10000006C00E4026964
:100300000000002400E4024600000048003F0369AA
:100310000000002400A403690000002400DC030A9C
:10032000040000FB00DC03690000002400550446C3
:100330000000004800DD0446000000480075055D2F
:100340000200002400750522000000480075052207
:100350000000004800750522000000B3005504B1FC
:1003600000000024007505460000004800C805751F
:1003700000000018007D06690000002400C805691F
:10038000060080AF001400880114000080100332C2
:1003900000930232000B023200700332005D013222
:1003A0000026013200EE013200C4003200A5003206
:1003B0000083003200DC0032005700320049003276
:1003C0000080003200800032000000140080003203
:1003D0000000001400800032000080D5F08D14A1D0
:1003E000C881CFD9F1AF2000451204451404451649
:1003F00004451804451A04451C04451E0445200400
:10040000452204452404452604452804452A04457C
:100410002C04452E0445300445320445340443344D
:10042000014134013F34013D350139350137350192
:100430003535013336013136012F36012D36012B8A
:1004400036992C13042C15042C17042C19042C1B7E
:10045000042C1D042C1F042C21042C23042C250403
:100460002C27042C29042C2B042C2D042C2F042C99
:1004700031042C33042C35012C370129370127375F
:10048000012537012337011F38011D38011B3801B1
:10049000193801173801153999121304121504126D
:1004A0001704121904121B04121D04121F04122136
:1004B00004122304122504122704122904122B0407
:1004C000122D04122F0412310412330412350412B7
:1004D00037041239011139010F39010D39010B3A75
:1004E00001093A01073A01053A01033A01013B01CA
:1004F000FF3D01FF3F01FF4101FF4301FF4501FFB8
:100500004701FF4901FF4B01FF4D01FF4F01FF5123
:1005100001FF530101530203530205530207530223
:100520000954020B54020D54020F540211540213C9
:1005300055021555021755021955021B55021D5635
:10054000021F560221560223560225560227570241
:100550002957022B57022D57022F570231580233C9
:1005600058023558023758023958023B59023D5952
:10057000023F5902415902435902455A02475A0261
:10058000495A024B5A024D5A024F5B02515B0253C9
:100590005B02555B02575B02595C025B5C025D5C6F
:1005A000025F5C02615C02635D02645E02655F0281
:1005B00065610265630265650265670265690265DA
:1005C0006B02656D02656F0265710265730263738C
:1005D000016173015F73015D74015B740159740102
:1005E0005774015574015375015175014F75014DD3
:1005F00075014B75014976014776014576014376D1
:10060000014176013F77013D77013B770139770161
:100610003777013578013378013178012F78012D52
:1006200078012B790129790127790125790123792D
:1006300001217A011F7A011D7A011B7A01197A01C1
:10064000177B01157B01137B01117B010F7B010DD2
:100650007C010B7C01097C01077C01057C01037D89
:1006600001017E01018001018201018401018601F5
:10067000018801018A01018C010000040B794A0103
:10068000180D794A001C0F794A000C117849000CAA
:10069000137849000C157849000C177849000C199B
:1006A0007849000C1B7748000C1D7748000C1F7719
:1006B00048000C217748000C237748000C2576472A
:1006C000000C277647000C297647000C2B76470054
:1006D0000C2D7647000C2F7546000C317546000C2A
:1006E000337546000C357546000C377546000C39DD
:1006F0007445000C3B7445000C3D7445000C3F7480
:1007000045001C417445001C437343001C45734362
:10071000001C477343000C497343000C4B734300A8
:100720000C4D7242000C4F7242000C517242000C90
:10073000537242000C557242000C577141000C5923
:100740007141000C5B7141000D5D714100055D6FF1
:100750003F0C035D6D3D0C035D6B3B0D035D693923
:100760000D035D67370C035D65350C035D63330D69
:10077000035D61310D035D5F2F0C035D5D2D0C0387
:100780005D5B2B0D035D592900465B5929004E59CD
:100790005828004C575828004C555828004C53589E
:1007A00028004C515828004C4F5727004C4D5727D4
:1007B000005C4B5727005C495727005C47572700D0
:1007C0005C455626005C435626005C415626005C7C
:1007D0003F5626005C3D5626005C3B5525005C39A3
:1007E0005525005C375525005C355525005C335593
:1007F00025005C315424005C2F5424005C2D5424CB
:10080000004C2B5424004C295424004C2753230023
:100810004C255323004C235323004C215323004CDD
:100820001F5323004C1D5222004C1B5222004C1916
:100830005222004C175222004C155222004C1351E8
:1008400021004C115121004C0F5121004C0D512120
:10085000004D0B512100490B4F1F0C030B4D1D0C7C
:10086000030B4B1B0D030B49190D030B47170C030F
:100870000B45150C030B43130D030B41110D030B1B
:100880003F0F0C030B3D0D0C030B3B0B0D030B3902
:10089000090D030B37070C030B35050C030B330352
:1008A0000D030B31010D030B2F000C030B2D000C5E
:1008B000030B2B000D030B29000D030B27000C036A
:1008C0000D2400002A0D2400000E0F2400000C113E
:1008D0002400000C132400000C152400000C172425
:1008E00000000C192400000C1B2400000C1D240027
:1008F000000C1F2400000C212400000C2324000005
:100900000C252400000C272400000C292400000CD6
:100910002B2400000C2D2400000C2F2400000C318F
:100920002400000C332400000C352400000C372474
:1009300000000C392400000C3B2400000C3D240076
:10094000000C3F2400000C412400000C4324000054
:100950000C452400000C472400000C492400008CA6
:100960004B2400008C4D21000B044F1F000B0C5139
:100970001E000B0C531D000B0C551D000F00551DC8
:10098000000F00551D000F00551D000F00551D00E4
:100990000F00551D000F00551D000F005F15000FC3
:1009A000005F15000F005B150013005B15001300BE
:1009B0005F170014005F170014006419001400642E
:1009C000190014006419001400581D011400581D6A
:1009D000021400581D031400542A041400542A055C
:1009E0001400542A06140058320714005832081410
:1009F0000058320914005934090000593409010023
:100A00005B340903005D340905005F3409070061A8
:100A100034090900633409030065340905006734AB
:100A200009070069340909006B340903006D3409B2
:100A300005006F3409070071340909007334090394
:100A40000075340905007734090700793409090075
:100A50007B340903007D340905007F3409070081D8
:100A600034090700551E000B00571F010B005B21C6
:100A7000030B005D23050B005F26080B0061290BAB
:100A80000B00632C0E0B006530120B006733151042
:100A9000006933151100693315120069331512000E
:100AA0006933151200693315120069331512006994
:100AB00033151200693315120069331512004D24E5
:100AC000000B004F24000B005124000B00532500A5
:100AD0000B005525000B005725010B005B26030B6F
:100AE000005D26050B005F27080B0061280B0B003B
:100AF00063290E0B00652B120B00672E1510006981
:100B0000331511006933151200693315120069336A
:100B10001512006933151200693315120069331577
:100B2000120069331512006933151200C734090128
:100B300000633409010063340900006334090000D4
:100B400061330902005F310904005D2E0906005B74
:100B50002C090800592A09020057280904005526C3
:100B6000090600532409080051220902004F2109F7
:100B700004004D220906004B2409080049240902FB
:100B800000472409040045240906004324090800FD
:100B900041240902003F240904003D240906003BCA
:100BA00024090800392409020037240904003524E7
:100BB000090600332409080031240902002F240902
:100BC00004002D240906002B240908002924090209
:100BD000002724090400252409060023240908000D
:100BE00021240902001F240904001D240906001BFA
:100BF000220908001920090200171E080400151C0C
:100C0000070600131A0608001118050A000F16043B
:100C10000A000F14030A000F13020A000F11010A41
:100C2000000D0F000A000B0E000200090E00040068
:100C3000070E000600050E000800030E0002000368
:100C40000E000C00030E000C00030E000D00030E3E
:100C5000000D00030E000C00030E000C00030E003C
:100C60000D00030E000D00030E000C00030E000C1F
:100C700000030E000D00030E000D00030E000C001B
:100C8000030E000200010E000400FF0E000600FD2E
:100C90000E000800FB0E000200F90E000400F70E23
:100CA000000600F50E0008007924000004FCFEFF99
:100CB000FFFFFFFFFFFFFFFFFFFFFFFFFFFFFFFF44
:100CC000FFFFFFFFFEFEFC070F1F1F1F1F1F1F1F41
:100CD0001F1F1F1F1F1F1F1F1F1F1F1F1F1F1F1F24
:100CE0000F1A0D00FC02FAFAAAAA02F2FA2AF2027C
:100CF000B2BAEA6A021AFAE21A02FC000000070815
:100D00000A0A0A0A080A0A090A080A0A0A0908084D
:100D10000A0A080807000000FC02FAFA22FA02F2A6
:100D2000FA2AF202FAFA2AD202FAFA8AF202FC004B
:100D3000000007080A0A090A080A0A090A080A0A32
:100D4000090A080A0A0A0A08070000FCFCFCFCFC65
:100D5000FCFCFCFCFCFCFCFCFCFCFCFCFFFFFFFFC7
:100D6000FFFFFFFFFFFFFFFFFFFEFCF80101010196
:100D70000101010101010101010101010101010163
:100D80000103070F0F0F0F0F0F0F070301210C00B7
:100D9000007828100078285000785800104820006B
:100DA000104820000078FC8ED6DAD68EFC78000041
:100DB0000000000000000000000000000000000033
:100DC0000000000000000102050505050502010004
:100DD000000408022905023E09093E3F25251A1E86
:100DE0002121123F21211E3F2525213F0505011EFE
:100DF00021293A3F04043F213F21001021211F3FB8
:100E0000040A313F2020203F02023F3F02043F1EE0
:100E100021211E3F0909061E21112E3F09093622F4
:100E2000252519013F01011F20201F0F10201F3F02
:100E300010103F3B04043B03043807312D23211ECF
:100E400029251E223F2000322929261221251A0C8D
:100E50000A3F08172525191E252518013905031AEB
:100E600025251A0629291EFCFEFFFFFFFFFFFFFFB5
:100E7000FFFFFFFFFFFFFFFFFFFFFFFFFFFFFFFF82
:100E8000FFFFFFFFFFFFFFFFFFFFFFFFFFFFFFFF72
:100E9000FFFFFFFFFFFFFFFFFFFFFFFFFFFFFFFF62
:100EA000FFFFFFFFFFFFFFFFFFFFFFFFFFFFFFFF52
:100EB000FFFFFFFFFFFFFFFFFFFFFFFEFEFCFFFF47
:100EC000FFFFFFFFFFFFFFFFFFFFFFFFFFFFFFFF32
:100ED000FFFFFFFFFFFFFFFFFFFFFFFFFFFFFFFF22
:100EE000FFFFFFFFFFFFFFFFFFFFFFFFFFFFFFFF12
:100EF000FFFFFFFFFFFFFFFFFFFFFFFFFFFFFFFF02
:100F0000FFFFFFFFFFFFFFFFFFFFFFFFFFFFFFFFF1
:100F1000FFFFFFFFFF010307070707070707070793
:100F20000707070707070707070707070707070751
:100F30000707070707070707070707070707070741
:100F40000707070707070707070707070707070731
:100F50000707070707070707070707070707070721
:100F6000070707070707070707070703571300FCCB
:100F70000202F2F2F282F2F2F202F2F2F202C2E2C1
:100F8000F2121252624202F2F2F282F2F2F2020221
:100F9000E2F29292122202C2E2F2321212722202A1
:100FA000C2E2F2125212F2E2C202F2F2F21212F2B1
:100FB000F2E202F2F2F292921202E2F29292122221
:100FC0000202FC000000FF00005F5F5F005F5F5FE8
:100FD000005F5F5F00172F5F50515F2F5F005F5F03
:100FE0005F005F5F5F002C5C5151535F2E00172F35
:100FF0005F585050582E00172F5F5050505F2F17DA
:10100000005F5F5F01015F5E58005F5F5F5052509D
:101010000C5C5151535F2E0000FF000000010202E2
:1010200002020202020202020202020202020202A0
:101030000202020202020202020202020202020290
:101040000202020202020202020202020202020280
:101050000202020202020202020202020202020270
:101060000202020202020202020202020202020260
:10107000010000FFFFFFFFFFFFFFFFFFFFFFFFFF7C
:10108000FFFFFFFFFFFFFFFFFFFFFFFFFFFFFFFF70
:10109000FFFFFFFFFFFFFFFFFFFFFFFFFFFFFFFF60
:1010A000FFFFFFFFFFFFFFFFFFFFFFFFFFFFFFFF50
:1010B000FFFFFFFFFFFFFFFFFFFFFFFFFFFFFFFF40
:1010C000FFFFFFFFFFFFFFFFFFFFFFFFFFFFFFFF30
:1010D000FFFFFFFFFFFFFFFFFFFFFFFFFFFFFFFF20
:1010E000FFFFFFFFFFFFFFFFFFFFFFFFFFFFFFFF10
:1010F000FFFFFFFFFFFFFFFFFFFFFFFFFFFFFFFF00
:10110000FFFFFFFFFFFFFFFFFFFFFFFFFFFFFFFFEF
:10111000FFFFFFFFFFFFFFFFFFFFFFFFFFFFFFFFDF
:10112000FFFFFFFFFFFFFFFFFFFFFFFFFFFFFFFFCF
:10113000FFFFFFFFFFFFFFFFFFFFFFFFFFFFFFFFBF
:10114000FFFFFFFFFFFFFFFFFFFFFFFFFFFFFFFFAF
:10115000FFFFFFFFFFFFFFFFFFFFFFFFFFFFFFFF9F
:10116000FFFFFFFFFFFFFFFFFFFFFFFFFFFFFFFF8F
:10117000FFFFFFFFFFFFFFFFFFFFFFFFFFFFFFFF7F
:10118000FFFFFFFFFFFFFFFFFFFFFFFFFFFFFFFF6F
:10119000FFFFFF030303030303030303030303032B
:1011A000030303030303030303030303030303030F
:1011B00003030303030303030303030303030303FF
:1011C00003030303030303030303030303030303EF
:1011D0000303030303030303030303482200FC0682
:1011E00002020202020202020202020202020202DF
:1011F00002020202020202020202020202020202CF
:1012000002020202020202020202020202020202BE
:1012100002020202020202020202020202020202AE
:10122000020206FC0000FF000000000000000000B9
:1012300000000000000000000000000000000000AE
:10124000000000000000000000000000000000009E
:10125000000000000000000000000000000000008E
:101260000000000000000000000000FF0000FF0080
:10127000000000000000000000000000000000006E
:10128000000000000000000000000000000000005E
:10129000000000000000000000000000000000004E
:1012A000000000000000000000000000000000003E
:1012B000000000FF0000FF800000000000000000B0
:1012C000000000000000000000000000000000001E
:1012D000000000000000000000000000000000000E
:1012E00000000000000000000000000000000000FE
:1012F0000000000000000000000080FF000000016E
:1013000001010101010101010101010101010101CD
:1013100001010101010101010101010101010101BD
:1013200001010101010101010101010101010101AD
:10133000010101010101010101010101010101019D
:1013400001010100000B08878F9DB7E7C7A5D7AF44
:10135000978D0000000000000000000306080B0E3F
:101360001113FCFEFFFFFFFFFFFFFFFFFFFFFFFF6B
:10137000FFFFFFFFFFFFFFFFFFFFFFFFFFFFFFFF7D
:10138000FFFFFFFEFC070F1F1F1F1F1F1F1F1F1F39
:101390001F1F1F1F1F1F1F1F1F1F1F1F1F1F1F1F5D
:1013A0001F1F1F1F1F1F0F07230D0000F804040439
:1013B0000404F4542404E454E404F404F40424542D
:1013C0009404F454140404040404F800000000031A
:1013D00004040404040504040405040504040504C9
:1013E00004050504040505050404040404030000C1
:1013F000FCFEFFFFFFFFFFFFFFFFFFFFFFFFFFFF01
:10140000FFFFFFFFFFFFFFFFFFFFFFFFFFFFFFFFEC
:10141000FFFFFFFFFFFFFFFFFFFFFFFFFFFFFEFCE0
:10142000070F1F1F1F1F1F1F1F1F1F1F1F1F1F1FF4
:101430001F1F1F1F1F1F1F1F1F1F1F1F1F1F1F1FBC
:101440001F1F1F1F1F1F1F1F1F1F1F1F1F1F0F07D4
:10145000300D0000F80404040404E414D404E4543B
:10146000E404F424F404F454140404E414E404F44C
:1014700004F404F4541404F454A40404040404F818
:10148000000000000304040404040405050405042A
:101490000504050405040505050404040504040405
:1014A00005040405050504050405040404040403F7
:1014B0000000040406090F060A0F0F08090D0F0AA1
:1014C000090B0F0F03020F0F070D0D0D0F0A0E0E64
:1014D000010D0F030E0B0B0F07050F0F143E7E7F40
:1014E0007F3F1E0C080700143C363A160C00FCFE29
:1014F000FFFFFFFFFFFFFFFFFFFFFFFFFFFFFFFFFC
:10150000FFFFFFFFFFFEFC000103030303030303D0
:1015100003030303030303030303030303030100A0
:10152000190A00FC02020202020202020202020284
:10153000020202020202020202FC0000000101019A
:10154000010101010101010101010101010101018B
:1015500001010000040406090F060A0F0F08090D17
:101560000F0A090B0F0F03020F0F070D0D0D0F0AC6
:101570000E0E010D0F030E0B0B0F07050F0FFCFED8
:10158000FFFFFFFFFFFFFFFFFFFFFFFFFFFFFFFF6B
:10159000FFFFFFFEFC3F7FFFFFFFFFFFFFFFFFFF9F
:1015A000FFFFFFFFFFFFFFFFFFFF7F3F171000FC64
:1015B0000202FA8202FAAA027A827A02FAAA02FAEB
:1015C000820202FC00003F4040404040404040401A
:1015D000404040404040404040403F0040E8FCFC2C
:1015E000FCFCFCDCBBFFFDFFFBB870F0F0F0F07022
:1015F00020000000000000000001010101010103C2
:101600000303030303010000002070F0F0F0F0700A
:10161000BBFFFDFFFBB8DCFCFCFCFCFCE840000071
:1016200001030303030303010101010101000000A1
:101630000000000090F8F8F8F8F8F8F8FBFFFFFF5A
:10164000FBF8F8F8F8F8F8F8F8900001010101014A
:10165000010101010101010101010101010101007B
:10166000160A004048586858488890B3D5B390107F
:101670002060A060202000000000000000000000AA
:101680000000000000010101010101000000000054
:10169000202060A060201093B5D3B090884858688F
:1016A0005848400000000001010101010100000054
:1016B00000000000000000000000009090B0D0B0DA
:1016C000909090B3D5B3909090B0D0B0909090009F
:1016D000000000000000000000000000000000000A
:1016E000000000000000070B066B9DFBDE0A0000F7
:1016F00000060402040000009DFBDE00000000065E
:1017000004020000000000FB0000000000000400D4
:1017100000000000000000000000000004000000C5
:10172000000000F8000000000000000000000000C1
:10173000000300000000000000000000080CF4FEA0
:10174000FEFFFFFFFEEC0E0F0F0F0F0F0E0E080C2B
:10175000ECFEFFFFFFFEFEF40E0E0F0F0F0F0F0E3D
:101760000ADFFFFFFFFF6F040607070706006FFF92
:10177000FFFFFFDF0A00060707070604FFFFFFFF62
:10178000FFFFE600020707070600E6FFFFFFFFFF77
:10179000FF000607070702001FFFFFFFFFFF6600AD
:1017A00002070707060066FFFFFFFFFF1F0006078F
:1017B000070702001FFFFFFFFFFF260406070707BA
:1017C000060026FFFFFFFFFF1F00060707070604AE
:1017D0001FFFFFFFFFFF660006070707020066FF07
:1017E000FFFFFFFF1F00020707070600FFFFFFFFC5
:1017F000FFFFE604060707070702E6FFFFFFFFFFFC
:10180000FF02070707070604E2FFFFFFFFFF3A009A
:101810000607070702003AFFFFFFFFFFE20002078B
:101820000707060056FEFEFFFFFFDE0000050F1F44
:101830000F1DDEFFFFFFFEFE561D0F1F0F050000F0
:101840000A0D00004094BCB6FAD68C40000000009F
:1018500000050905080000FE4094BCB6FAD68C408D
:10186000100700000005090508000E0D000018AC67
:10187000F46C78A80000000000000008060B0701C7
:1018800001000000000000000000000080C0C0A0B7
:1018900070E04000000000000A0A0703050305008D
:1018A000010000000080008000808080008040C037
:1018B00080000000040200030709070F050E030063
:1018C000070B000ADEFB9D6B060004020406000005
:1018D000066B9DFBDE0A00000006040204004A1E9F
:1018E000DBFDEB2640000002040600004026EBFD75
:1018F000DB1E4A000006040200000A1EDBFDEB6648
:1019000000000002000600000066EBFDDB1E0A007E
:101910000006000200000A1EDBFDAB2600000402E8
:10192000000600000026ABFDDB1E0A0000060002D8
:1019300004000A1EDBFDEB6600000006000200004A
:101940000066EBFDDB1E0A000002000600004A1ED6
:10195000DBFDEB2640000402000202004026EBFD06
:10196000DB1E4A000202000204004022EBFBEB22D5
:1019700010000006000200001022EBFBEB224000EA
:1019800000020006000054BCB6FAD60C00000005A8
:10199000090508000CD6FAB6BC5400080509050074
:1019A00000001414000000C03804C279655151656C
:1019B00079C20438C000000038C40213E4E9A2D799
:1019C00035E5E535D7A2E9E41302C438000C050A71
:1019D00008090D0A010101010A0D09080A050C0098
:1019E00000000000C03844DAE5F9C5338A74887015
:1019F0008000000000000043249B070697337938DD
:101A000010100080010608F000060D0F07000809FD
:101A1000060D0F070008060908000E0100000080EF
:101A20007088748A33C5F9E5DA4438C000000000D4
:101A3000F0080601800010103879339706079B24C0
:101A400043000000010E000809060800070F0D06FC
:101A5000090800070F0D0600C03008087CF4C21DFD
:101A60002B416B412B9EC47C080830C00738C01244
:101A7000C4E8E2F7F56565F5F7E2E8C412C0380797
:101A8000000C050A08090D0B010101010B0D0908E5
:101A90000A050C00000000C0380402D9A511B115D8
:101AA000A1C20438C000000078848203CFCFECF1DB
:101AB000E26466E4F2E9CCC703828478000C050A8C
:101AC00008090D0B010101010B0D09080A050C00A5
:101AD000000000C03804C2796551516579C20438EC
:101AE000C000000070888403C4D982385482D68232
:101AF000543881C403848870000C050A08090D0B52
:101B0000020000020A0D09080A050C00000000C0CE
:101B10003804C2796551516579C20438C0000000AB
:101B200038C40213E4E9229745256525478229E454
:101B30001302C438000C050A0809080305080D083B
:101B4000050308080A050C0000000000C0201090E2
:101B500010C8A42272CAAA4A02E408F000186488D5
:101B6000473079FEFC7132254A2C0987710804033D
:101B70000000000000020504080A0501010101003F
:101B800000000000E8182090C8C8C424844830A091
:101B90002020404040800000C38142BDDB5ABD662A
:101BA000007EC37E81FF665A4224817E07080409B5
:101BB0000B0B0B0C090A0C050404020202010000C5
:101BC000D0F8F8F0F8F8F8FCFCFCF8F0E0E0E0C041
:101BD000C0C08000000087CF87FFFFFFFFFFFFFF2F
:101BE000FFFFFFFFFFFFFFFFFFFFFEFC0F1F3F1F79
:101BF0003F3F3F3F3F3F3F3F1F1F1F0F0F0F070359
:101C00000100161600D0304020909088480890605F
:101C100040404080808000000000008702847BB745
:101C2000B57BCC01FC86FD02FECCB4844902FC00ED
:101C3000000F110813171617181214190A090904AE
:101C4000040402010000000000C0E0F0F8F8F8FC15
:101C5000FEFFFFFFFFFFFFFEFCF8F0187CFEFFFF1A
:101C60007FFFFFFFFFFFFFFFFFFFFFFF7F0F070368
:101C70000000000102070F0F1F1F0F0703030301DE
:101C80000000000000151500000000C0201090109A
:101C9000C8A42272CAAA4A02E408F00000186488A4
:101CA000473079FEFC7132254A2C098771080403FC
:101CB000000000000000020504080A0501010101FE
:101CC00000000000000000000080F0F8FCFEFFFFB4
:101CD000FFFFFFFFFEFCF8F08000000070F8FCFF43
:101CE000FFFFFFFFFFFFFFFFFFFFFFFFFFFFFFFC07
:101CF000F87000193F1F3F3F3F3F3F170707173F4F
:101D00003F3F3F3F1F3F1900161600000000807044
:101D10000884F2CAA2A2CAF28408708000000000FF
:101D20000070880427C8D245AE6ACACA6AAE45D2D6
:101D3000C827048870000000190A1411131B15022B
:101D4000030302151B1311140A190000387CFEFF4F
:101D5000FFFFFE7C380000000101010000000909BE
:101D600000385482D6825438000000000000000081
:101D7000000000384CC29286643800000000000069
:101D8000000000000038648692C24C380000000059
:101D900000000000000021080F0F08080006090BD2
:101DA00006000E03030E000F090F06000F0F000FB1
:101DB00002030F000E0F090D000E10BEBDBEBDBE0A
:101DC000BDBEBDBEBDBEBDBE00000400040004001B
:101DD000040004000400004E080F0D0702000F0568
:101DE0000F0A000F0D0900020B0D00020B0D000081
:101DF0000000000F0D0702000F0F0808000E03037C
:101E00000E00030E0E0300000006090B06000F0271
:101E1000030F00000000010F0F010E03030E000F5F
:101E20000D0702000F0D090E10A7C7A7C7A7C7A768
:101E3000C7A7C7A7C7A70007070707070707070719
:101E4000070707070024080E1F1F1F0E00000000D1
:101E5000000000000000001F0E0400000000000051
:101E6000000000040E1F00040E1F00570068013E12
:101E7000006801570068013E006801AF00B4009C93
:101E800000B400AF00B4009C00B400000019009C36
:101E9000005A0000005A009C005A0000005A009CA2
:101EA000005A0000005A009C005A0000005A00C46A
:101EB000006801B9006801C4006801A5006801AFAD
:101EC000005A00A5005A00AF005A00A5005A00AF02
:101ED000005A00A5005A00AF005A00A5005A00AFF2
:101EE00000EE020080FFFFFFFFFFFFFFFFFFFFFF8D
:101EF000FFFFFFFFFFFFFFFFFFFFFFFFFFFFFFFFF2
:101F0000FFFFFFFFFFFFFFFFFFFFFFFFFFFFFFFFE1
:101F1000FFFFFFFFFFFFFFFFFFFFFFFFFFFFFFFFD1
:101F2000FFFFFFFFFFFFFFFFFFFFFFFFFFFFFFFFC1
:101F3000FFFFFFFFFFFFFFFFFFFFFFFFFFFFFFFFB1
:101F4000FFFFFFFFFFFFFFFFFFFFFFFFFFFFFFFFA1
:101F5000FFFFFFFFFFFFFFFFFFFFFFFFFFFFFFFF91
:101F6000FFFFFFFFFFFFFFFFFFFFFFFFFF4410002A
:101F70000000000000BC7EC7EBEDEBC77EBC00009C
:101F80003C2C0038143800082410000438040000E9
:101F900000000000BC7EC1D5D5D5CB7EBC00003C86
:101FA000103C00381438003C1428003C2418000071
:101FB0000000000000000000000001020202020216
:101FC0000100000000000000000000000000000010
:101FD00000000000000000000001020202020201F5
:101FE00000000000000000000000000000000000F1
:101FF00000000000000000387CFEFFFFFFFE7C3880
:10200000000000010101000000090900385482D6D7
:102010008254380000000000000000000000384C2E
:10202000C29286643800000000000000000000003A
:1020300038648692C24C38000000000000000000A6
:10204000000D08252D39312931252D39312931212E
:10205000622BFC02FDFDFDFDFDFDFDFDFDFD02FD14
:10206000FDFDFDFDFDFDFDFDFD027C90E8F4FAFDAA
:10207000FDFDFDFDFDFDFDFDFDFAF4E890FC02FD1A
:10208000FDFDFDFDFDFDFDFDF3CC02FDFDFDFDFDB6
:10209000FDFDFDFDFDFD02DCE8F4FAFDFDFDFDFDAD
:1020A000FDFDFDFDFDFAF4E8D020C00000000000B9
:1020B000000000000001FE00FFBF7F7F3FBFBFBCEC
:1020C0007E7F7FBF7FB7CB35C20202FF00FFBF7F9D
:1020D000BF7FBFFF01FE0001FF7FBF7FBF7FFF000B
:1020E000FFFE00FFBF7FBF7FBFFF7FFFBF7CB07FD2
:1020F000BF7FBF7FBFFF00FE00FFBF7FBF7FBFFF6F
:1021000000FE0EECAB6BAB6BAB6BEB0CF3000000AB
:10211000000000000000F008F7B0DFAAD08003350F
:102120004E7D6F15FAAFD5AAD7AED9B6F40FF08FA2
:102130007AD5AAD5AADFB8D7B4D8AFD5AAD5EA7DC3
:102140008FF00FF7B0DFAAD5AAD5AADFB0F1079DAF
:102150007AD5AAD5AAD5AAFF00FF40BF6AD5AAD5CD
:10216000AADFB0D7B4D3BED56A350A959F809F80C9
:1021700080000000000000003B78EABA3A3A2ABA30
:1021800078B86B3A79EAB83A3A2ABA7ABA6A3A78B7
:10219000EBB8393A28BA7ABA6A3A7AEABA3A3A28B5
:1021A000BA79B86B387AEABA3A3A2ABA7ABA6A3A53
:1021B00078EBBA383A2ABA7ABA6A387BE8B8393A48
:1021C00028BA7ABA6A3A3A0A00E01C8261BCB2A81C
:1021D000A8B2BC61821CE0000000040404050706EC
:1021E00005060504040404040507060506050404A1
:1021F0000404040507060506050404040404050791
:10220000060506050404040404050706050605047E
:102210000404040405070605060504040404040573
:1022200007060506050400001C62810972F4D16BE3
:102230009AF2F29A6BD1F4720981621C00000000DC
:10224000000000000000000000000000000000008E
:10225000000000000000000000000000000000007E
:10226000000000000000000000000000000000006E
:10227000000000000000000000000000000000005E
:102280000000000000000000000000060205040439
:102290000605000000000506040405020600181EDD
:1022A0001000190100050F0C18042418053C18062D
:1022B0000943001342001D4100274000313F003B0D
:1022C0003E00453D00092F03152F01212F012D2F21
:1022D00001392F01452F01174B01234B01575001A5
:1022E0005F50016B50017750016349016F49017BD9
:1022F00049016B500E573F01633F016F3F017B3F28
:1023000001FB6C01166C01226C012E6C01326C0118
:102310004F6C01005C000A5D00145E001E5F002827
:1023200060003261003C62004663005064005A6500
:10233000007170027D70020A85001484001E830003
:102340002882003281003C8000467F00507E005A87
:102350007D00647C00094A035B6A03FC2F010024B2
:10236000070044891444882845883C46885047889B
:102370006448887849885B0A0A55000B007A0C008B
:102380007A4D000000FFFFFFFFFFFFFFFFFFFFFF91
:10239000FFFFFFFFFFFFFFFF000000000000000045
:1023A00000F0F8F0F0F0F0F0F8F01402030300038E
:1023B00003030003030300030303000303030003F9
:1023C00007070007070700070707000707070007B9
:1023D00007070007FFFFFFFCFCFCFCFCFFFFFFFF03
:1023E000FFFFFFFFFFFFFFFFFFFF070707010101DF
:1023F0000101070707252000000000000000000081
:1024000000000000000000000000000000000000CC
:1024100000000000000000000000000000000000BC
:1024200000008040200C1A1ECCC0828A36E484440E
:10243000A84818D090102020204040408080800084
:10244000003048482502040000000000000001019F
:10245000030307070F0C1C1838337E78F4CAC582B3
:10246000810E7CE00101000000000000000000007F
:10247000000000000000000000000000000000005C
:102480000000000101030307070F0C00000000001B
:10249000000000000000000000000000000000003C
:1024A000000000000000000000000000000000002C
:1024B000000000000000000000CC1A1ECCC0828A80
:1024C00036E48444A84818D0901020202040404092
:1024D000808080000000000080404234081320000B
:1024E00000000101030307070F0C1C1838337E7826
:1024F000F4CAC582810E7CE00101000000010202E5
:1025000001000000000000000000000000000000CA
:10251000000000000000000101030307070F0C008A
:1025200000000000000000000000000000000000AB
:10253000000000000000000000000000000000009B
:10254000000000000000000000000000000CDA1E87
:10255000CCC0828A36E48444A84818D09010202049
:10256000204040408080800000000000000000000B
:102570000000887B08000101030307070F0C1C18EB
:1025800038337E78F4CAC582810E7CE001010000F8
:102590000000000000000001020201000000000035
:1025A000000000000000000000000001010303071C
:1025B000070F0C00000000000000000000000000F9
:1025C000000000000000000000000000000000000B
:1025D00000000000000000000000000000000000FB
:1025E000000C1ADE0CC0828A36E48444A84818D055
:1025F000901020202040404080808000000000009B
:102600000000000000000000201398690581070702
:102610000F0C1C1838337E78F4CAC582810E7CE01A
:1026200001010000000000000000000000000001A7
:102630000202010000000000000000000000000194
:1026400001030307070F0C0000000000000000005A
:10265000000000000000000000000000000000007A
:10266000000000000000000000000000000000006A
:1026700000000000000C1A1E4CC0028A36A404445C
:10268000A84818D090102020204040408080800032
:10269000000000000000000000000000000008042E
:1026A00002056893876C0C1838337E78F4CAC582AB
:1026B000810E7CE00101000000000000000000002D
:1026C000000000000000000000000000000000000A
:1026D0000000000101030307070F0C25180000008C
:1026E000008040C08020A0A0202020A020D0D0903A
:1026F00010101010109050906868C88808080808DA
:10270000080800000000017B0301080C0D0F0E0DEE
:102710000E1D1818191B1E1C1A1D1A19181010301E
:102720003133363C38343A00000000314F4120004C
:102730000000000000000000000000000000000099
:102740000000000000000000000000001C28000045
:102750000000000000000000000000000000000079
:10276000008080C0C060603030180000008080C0F1
:10277000C060603030B8188C6CE6C68383E119E421
:10278000168C8C98587418B43C19012022261C18F9
:1027900016090E09040404030303010101000000EB
:1027A0000000887B0800000000000000000000001E
:1027B0000000000000000000000000000000010216
:1027C0000201000000000000000000000000000006
:1027D000000000000000000000003F1000000000AA
:1027E000000000000000F018D85818D8D818D8D821
:1027F00018D8D818F87880C0C0C0C0C0C0C0C0C049
:10280000C0C0FE03DBDB03DBCB03DBDB03DB5B03F3
:10281000FFFF00000000000000000020000020205A
:1028200000202020203F00361600363600363200C9
:102830003636003F00361600363600363200363661
:10284000003F003632003636003616003636003F7E
:102850003F202020002020200020130800007C546E
:10286000440078147800485424000C700C000000D8
:10287000007C107C00781478007C1468007C44385C
:1028800000000910000000000000000000F008D067
:10289000D010101008F00C1400421000004410007A
:1028A0004008010020D089A8A8A8A988B08CD3200E
:1028B0000002050B0F0A0A0A0A0502000088200020
:1028C000000842000044100220D088A8A8A9A888C7
:1028D000B08CD3200002050B0F0A0A0A0A05020079
:1028E00000820010440000104200080020D088A997
:1028F000A8A8A889B08CD3200002050B0F0A0A0AE9
:102900000A050200004210000044100000084100C7
:10291000408091285060115860B180400001030749
:102920000F0F0F0F0703010000882000000842006E
:1029300000441002408090285061105860B08140DF
:10294000000103070F0F0F0F0703010000410800EC
:10295000001044000010420040809128506110583F
:1029600060B18040000103070F0F0F0F0703010044
:1029700000000000008040800000000000804058FF
:102980002E2F2F96954A800003040A0A0D0D0D0E76
:102990000E0B05030910000048B0CCB0420000F057
:1029A00008DFDB151B1F08F0000080E862C0D000C4
:1029B00000F008DFD41B141F08F0000080E872C08C
:1029C000D00000F008DFD41B141F08F0000002B094
:1029D00058A4F00000F008DFDF151E1F08F0091BE7
:1029E0000000805C7B5C00000006091020202010A5
:1029F00008000000000000000000000000000000CF
:102A0000000000000000805C7B5C00000006C91034
:102A100020202010080000FF00000000000000043B
:102A200001000000000000000000805C7B5C0000F2
:102A30000006C910A0202010080000FF00FF0000C1
:102A40000000000401040100000000000000805CA0
:102A50007B5C00000006C910A020A010080000FF49
:102A600000FF00FF00000004010401040100000059
:102A70000000805C7B5C00000006C910A020A01054
:102A8000C80000FF00FF00FF00FF00040104010474
:102A9000010401001A20000000000000008040181E
:102AA000B4BC180008D0B0204080800000000000B6
:102AB0006090904A0408010000000003070C39737D
:102AC000E898141415D3D6140C1800000000000068
:102AD000000000000000000000000103071C38F3A4
:102AE000CD940A0A00000000000000000000000071
:102AF0000000000000000000000001030F1E0000A5
:102B0000000000000000009834BC180008D0B0207D
:102B100040808000000000000000000080846810F9
:102B200026010003070C3973E898141415D3D61442
:102B30000C18000000030404020000000000000064
:102B400000000103071C38F3CD940A0A00000000BE
:102B50000000000000000000000000000000000075
:102B6000000001030F1E000000000000000000181C
:102B7000B4BC180008D0B0204080800000000000E5
:102B800000000000000000000040DE43070C397325
:102B9000E898141415D3D6140C1800000000000097
:102BA0000000000C1310080000000103071C38F39C
:102BB000CD940A0A000000000000000000000000A0
:102BC0000000000000000000000001030F1E1402BE
:102BD00001000000010000000100000001000000F1
:102BE00001000000140302000000020000000200C7
:102BF000000002000000020000000B0BF83878E82B
:102C0000D0A000A0100C0C0704040405070707005F
:102C10000000F83878E0C8A44383000000070404EB
:102C200004050707070000000B1300FE484848484A
:102C3000484848FE0000FF92929292929292FF00C2
:102C4000000300000000000000030019100101074C
:102C5000050507030303030303030303030303033C
:102C60000705050704040000000000000000000044
:102C70000000000000000000000000000000000450
:102C80000407050507030303030303030303030307
:102C90000303070505070101000000000000000014
:102CA0000000000000000000000000000000000024
:102CB00000010107050507030303030303030303DF
:102CC00003030303070505070101000000000000DE
:102CD00000000000000000000000000000000000F4
:102CE00000000001010F0B0A0E060606040C0C0C76
:102CF000081818181870505070404000000000006C
:102D000000000000000000000000000000000000C3
:102D10000000000000004040705050701818181853
:102D2000080C0C0C040606060E0A0B0F010100002D
:102D30000000000000000000000000000000000093
:102D40000000000000000001070B0A0E06040C0C36
:102D500008181810303020E06040C000000000006B
:102D60000000000000000000000000000000000063
:102D70000001010101010000000000000000C0404E
:102D800060E0203030101818080C0C04060E0A0BF6
:102D90000701000000010101010100000000000026
:102DA000000000000000000000000019362C183060
:102DB00060C0800000000000000000000000000073
:102DC00000000000000000000000000103066CD8B5
:102DD000B060800000000000000000000000000063
:102DE000000000000000000000000000000080C0A3
:102DF0006030182C361900000000000000000000B0
:102E00008060B0D86C060301000000000000000DD7
:102E100008252D39312931252D39312931210C0849
:102E2000627A7A62627A7A62627A7A620B08878F51
:102E30009DB7E7C7A5D7AF978D387CFEFFFFFFFE94
:102E40007C3800000001010100000009090038542D
:102E500082D682543800000000000000000000000C
:102E6000384CC29286643800000000000000000068
:102E7000000038648692C24C380000000000000058
:102E800000000003F70403F80403F90403FA040341
:102E9000FB0403FC0403FD0403FE0403FF0403001E
:102EA000040301020501020701020901020B0102EC
:102EB0000D02020F02021102021302021502021792
:102EC00003021903021B03021D03021F0302210454
:102ED000022304022504022704022904022B05020E
:102EE0002D05022F05023105023305023506023792
:102EF00006023906023B06023D06023F0702410771
:102F0000024307024507024707024908024B08022D
:102F10004D08024F08025108025309025509025791
:102F200009025909025B09025D0A025F0A02610A8D
:102F300002630A02650A02670B02690B026B0B024D
:102F40006D0B026F0B02710C02730D04730F04738F
:102F50001104731304731504731704731904731B9A
:102F600004731D04731F047321047323047123016C
:102F70006F23016D23016B2401692401672401651E
:102F800024016324016125015F25015D25015B2585
:102F900001592501572601552601532601512601C5
:102FA0004F26014D27014B2701492701472701459E
:102FB00027014328014128013F28013D28013B28E2
:102FC0000139290137290135290133290131290125
:102FD0002F2A012D2A012B2A01292A01272A01251E
:102FE0002B01232B01212B011F2B011D2B011B2C3E
:102FF00001192C01172C01152C01132C01112D0185
:103000000F2D010D2D010B2D01092D01072E01059D
:103010002F01053101053301053504053704053954
:1030200004053B04053D04053F0405410401020479
:103030000810204080001C3111241FBECFEFDAE0C1
:10304000DEBFCDBF11E0A0E0B1E0E8E9FBE602C0E1
:1030500005900D92AE33B107D9F726E0AEE3B1E0AB
:1030600001C01D92A139B207E1F718E1CCE1D8E126
:1030700004C02197FE010E94BF35CB31D107C9F7AB
:103080000E94E6310C94CA350C9400002F923F92B6
:103090004F925F926F927F928F929F92AF92BF9268
:1030A000CF92DF92EF92FF920F931F93CF93DF9314
:1030B000CDB7DEB762970FB6F894DEBF0FBECDBFB7
:1030C0008C016B01DB011796BC9017971896BC9189
:1030D000BE87FC01828198012D553F4F2901811146
:1030E000F8C0780139E7E30EF11CD70117966C9010
:1030F0006110EFC0F2018081882369F1F6018581BA
:10310000968180FF02C00C946220D70112962C9108
:10311000211125C5D70118962C91189721111BC292
:1031200019963C91311117C2F7018089FB2DF0747B
:103130009F2E86FD25C591102EC59B2C95FC37C56D
:1031400094FC50C597FC54C5F801EA55FF4F8081A7
:10315000882309F452C51701F7017684D601159624
:103160008C9180FF06C2F8017196FB87EA87D8012F
:1031700054968C91863209F405C28F3309F496C7B0
:103180008D3009F44FC7FF24FA94863209F44BC7F7
:103190008F3309F448C78D3009F445C70E94833442
:1031A00023E030E040E050E00E94283598012359A8
:1031B0003F4F3F832E83623071058105910509F0F1
:1031C0000EC2662009F40BC2F8017C9690E081E003
:1031D0004E815F81E417F50709F0D7C1F801E85582
:1031E000FF4F2081921708F4FDC1F6018581968179
:1031F00066E070E00E949735892BB1F47801FCE11C
:10320000EF0EF11C480129E7820E911C472D50E07A
:103210005D874C87C4010C969A8B898BAE81BF81E8
:10322000EA16FB0609F00DC2F601828998012359BE
:103230003F4F3901813009F4F0C2D60152968C918A
:103240008130A9F47801B3E7EB0EF11CF70190810E
:10325000D3018C91890FF30190E0E215F30509F099
:1032600051C3882309F45AC3813009F454C3D601E9
:1032700015968D919C91169783709927892B09F447
:1032800089C3F801838D882309F4BCC384898632FD
:1032900008F49EC3873208F0A5C3F8017C966E1629
:1032A0007F0609F03FC4D60115968D919C91169723
:1032B00066E070E00E949735892B09F43AC4F60164
:1032C000858196816CE070E00E949735892B09F426
:1032D0003BC4D60150968C915097811105C081E076
:1032E00053968C93F20110827801F4EAEF0EF11CF0
:1032F000D701AC90B8E2AB1609F46EC0BA15C8F0AD
:10330000E9E0EA1548F0F2E0AF1608F06BC021E002
:10331000A21609F46CC08CC034E1A31609F460C095
:103320004EE1A41609F45AC05AE0A51281C081E00A
:103330001EC084E68A1560F09DE3A916E8F4A2E3B6
:10334000AA1609F447C0BCE3AB1272C086E00FC0F6
:10335000E8ECEA1558F4F9ECAF126AC08FEFF80107
:10336000EB55FF4F808381E0359604C08FEFF80165
:10337000EB55FF4F80835CC08FEFF801EB55FF4F9B
:10338000808381E035968083D60150968C91882386
:1033900009F44EC0F19711821082128260E070E051
:1033A000CF010C960E944521C8010E943E30F801D1
:1033B000E656FF4F8081811104C0C8010E940B3086
:1033C00037C0F801118A128A138A8DE0848B138E1C
:1033D000158A2EC085E0CBCF84E0C9CF83E0C7CF6C
:1033E00082E0C5CFF801EB55FF4F108221C0D60116
:1033F00050968C91882339F0C80187589F4F0E94BE
:103400002830F201A082F801EB55FF4F108236966A
:10341000108231971082739781E08283D801A85679
:10342000BF4F8C91823010F48F5F01C080E08183A8
:10343000D7018C91882311F081508C934801B6EA12
:103440008B0E911CF4018081882311F081508083C0
:10345000D2018C91F601238981114CC021114AC0FF
:103460008E8580958B21F82FF870CF2E8C7009F403
:103470002EC6D7018C91853618F0C8010E943E30C7
:10348000DD24D394F201D082F801E655FF4F10827B
:103490003597108236961082D7011C92C801875842
:1034A0009F4F0E942830F801E057FF4F138210828F
:1034B0000480F581E02D82E0828384E18083F8013D
:1034C000E956FF4FD28233968081811104C0C80132
:1034D0000E940B3008C0F801118A128A138A8DE00D
:1034E000848B138E158ACC2009F4F1C584E1D401B4
:1034F0008C93EDC5F60180858095978189232223E1
:10350000F9F083FFE4C565E0C601459662960FB603
:10351000F894DEBF0FBECDBFDF91CF911F910F9109
:10352000FF90EF90DF90CF90BF90AF909F908F90E3
:103530007F906F905F904F903F902F900C946C2EE7
:1035400082FFC5C5D80112969C91129781E0892708
:1035500012968C93BCC5F701318531110AC3222321
:1035600029F083709927892B09F499C31701F70172
:1035700076847801BAE8EB0EF11CF70185818111A0
:10358000F2CDF2C4FF24F3944EC52381222329F106
:103590009F5F20812E3418F43181F31280E035ECE6
:1035A000320F383030F43181F31203C0F11001C012
:1035B00080E032EE320F383038F42181F2120DC043
:1035C00051E0F5120AC008C0283038F42181F21207
:1035D00004C0A2E0FA1201C080E03996F9CD90E073
:1035E00080E0FCCD882309F400CE7801BCE1EB0E2D
:1035F000F11CEE81FF81EE16FF0609F4F6CDD7012E
:1036000013968C91139781111CC514968C9181117E
:1036100018C50E94833423E230E040E050E00E946D
:103620002835DC01CB010596A11DB11DF70184836E
:10363000F801F08EE78A128A838B6CE3680F618B46
:10364000D4CDF7018381882309F4E3C0D2018C91A2
:103650008823B1F1F4018281882391F1D701159675
:10366000BC91B88BF7016680D4016D917C918989FA
:103670009A890E944521D4011296EC91F0E0E85716
:10368000FE4FE491B8892B2FBB0F330BD4011C964E
:103690008C9190E02817390799F4D4011D968C91EC
:1036A0001D971E969C91891B8E1B082E000C990B52
:1036B00067188619910967FC939509970CF4C5C49E
:1036C000D4011296EC91F0E0E857FE4F8491D601B8
:1036D00052968C918823F1F08130C1F5D70115966F
:1036E0008C911597082E000C990B9C012F5F3F4F72
:1036F0003987288716968C91082E000C990B4C85DB
:103700005D85841B950BDC011196BD83AC8327E09E
:10371000A22E1BC0D70115968C911597082E000C70
:10372000990B9C012E5F3F4F3987288716968C9105
:10373000082E000C990B4C855D85841B950BDC01D4
:103740001296BD83AC8335E0A32EAF86D2018C9157
:10375000882381F1E491D4011C968C911C97082E4A
:10376000000C990B9C01295F3F4F488559854217F2
:10377000530704F59A012A0D311D82179307D4F4DB
:103780001D968C911D971E969C91891B8E1B082E51
:10379000000C990B9C01255F3F4FAC81BD81A217A6
:1037A000B30744F49D01BF852B0F311D821793078A
:1037B0000CF47FC4F70160818781680F6F5F6083BD
:1037C000C70105960E940722D70115968C9115977F
:1037D000811108C016968C911697811103C01C9216
:1037E00013961C92F7018085813049F0823089F46C
:1037F0008281823010F48F5F09C080E007C0F7013A
:103800008281882311F0815001C082E0D701129695
:103810008C93B9E0EB0EF11C01CD858196816AE0B5
:1038200070E00E949735892B09F007CD7901480196
:1038300039E7830E911CE214F30409F4FECCD7019E
:103840008C91882309F45AC011962C9111972F5FFF
:1038500011962C93B3E02B9F90011124F901E355AD
:10386000FE4F8491F901E255FE4FA491F901E15513
:10387000FE4F2491F7018383A4832F712583811147
:1038800004C0A11102C010821182F201908199231B
:10389000A9F1082E000C990BF4012281E22FF0E02F
:1038A000E857FE4FA490F4012485022E000C330B40
:1038B000B901695F7F4FAC014F5F5F4F46175707F4
:1038C000ECF4459628173907CCF4B0E08585968549
:1038D000891B8A19082E000C990BAC01455F5F4FBC
:1038E0009D012C5F3F4F2417350744F418968A1723
:1038F0009B0724F4B601C8010E945C30F6E0EF0E8D
:10390000F11C99CF2081222321F02181921708F404
:10391000922F3696A2CC933308F4A9CC0E9483341C
:1039200022E330E040E050E00E942835672B682B0E
:10393000692B09F09CCCF3018081882331F0D701F9
:103940008C91811104C081E003C080E001C08FEF41
:10395000F80126E0829FE00DF11D1124CF01E2590C
:10396000FF4F1082EDEAF1E03491EEEAF1E02491AC
:10397000EFEAF1E0E491DC01A059BF4F3C931196CE
:103980002C931196EF71EC93FC01E359FF4F81E00A
:1039900080836DCCF801E057FF4F8081882309F4C4
:1039A00070CC813091F4108213820480F581E02D77
:1039B00082E0828384E1808380913E01811161CC29
:1039C00081E992E00E9464235CCC8150808359CCD1
:1039D0008E3098F48D3009F060CC88E0868B8EE0D4
:1039E000848B5BCC8F3348F08F3309F056CC84E066
:1039F000F801868B8EE3848B50CC8A859B850E9450
:103A0000D3214BCC8389882339F08150838B81115A
:103A10003EC088E2828B3BC0F80182898823B9F1DD
:103A20008150828B811133C08489863221F08F339B
:103A300029F0A12C05C0AA24A39402C092E0A92ECB
:103A4000D8015796ED90FC90589780910401909181
:103A50000501A091060189839A83AB83FE01EA0DDB
:103A6000F11D6181F7016083C70105960E9407225D
:103A7000D7011196AC92119781E013968C938091A7
:103A80003E01811104C08BE992E00E946423F80199
:103A90008189882311F0815043C08489863271F076
:103AA00020F48D3049F0F8F4F8CB8F33E0F08F3309
:103AB00009F0F3CB84E015C088E013C00E94833482
:103AC00022E030E040E050E00E942835672B682B70
:103AD000692B11F484E001C088E0D80156968C93DC
:103AE00002C0F801868B8A859B850E94D321D8016C
:103AF00054968C91863229F08F3319F08D3009F06D
:103B0000CCCB0E94833422E830E040E050E00E94B9
:103B10002835DC01CB018A5B9F4FAF4FBF4FF801C7
:103B2000818BBBCB8481882311F0815084833996AB
:103B3000B6CBF801EA56FF4F8081833010F48F5FD7
:103B400001C080E08083BBCBF801E956FF4F808144
:103B5000823010F48F5F01C080E08083BACB2432C2
:103B600020F42F5FF7012283F6CAD70112961C9228
:103B7000F2CAAC0143705527452B09F485C0EFCC40
:103B8000B5FE02C082FD49C0992051F1F70180893C
:103B900083FD1CC025C0B3FE44C087FF42C081E046
:103BA000F7018087C7010E947730912CC7CAF701BF
:103BB000808982FF61C26081718161507109718366
:103BC0006083C7010C960E94452156C260817181B5
:103BD0006150710971836083C7010C960E94452171
:103BE0009B2CAECAD70150968C9181FD3DC0AACACC
:103BF000F701808980FD44C0A7CA93FEACCAD701F3
:103C000050968C9184FFA7CA8EEC90E00E946423AA
:103C100081E0D70112968C939ECAC7010E9477302B
:103C2000B3CF83FF8ACAD7018D919C9111978439B4
:103C30009105B1F481E019968C9319978AED90E083
:103C400011969C938E9312961C926AED70E0C701B8
:103C50000C960E9445218DE893E00E9464236DCA72
:103C6000C7010E94773069CAF70160817181615094
:103C7000710971836083C7010C960E94452162CA55
:103C8000C7010E94773060CAF701808191818E3E22
:103C9000910599F5B601C8010E945C305CCAD60155
:103CA00052968C91813009F45DC144E0D7018D9129
:103CB0009C914801BAE88B0E911CF4012181BC0152
:103CC000605A710967327105E0F08B3A910509F489
:103CD000E1C008F061C0833A910509F4C3C008F05F
:103CE0004AC08839910509F48AC08F39910509F4D1
:103CF000A5C08739910509F474C0C7010E947730C7
:103D00002ACA709630813111E0CFD801A356BF4F37
:103D10003C91E1E0E30FEC9311965C9111975130E7
:103D200089F048F05230C1F453E0E59FF0011124CE
:103D3000E652FF4F0DC053E0E59FF0011124ED5B0B
:103D4000FE4F06C053E0E59FF0011124E15EFE4FF7
:103D5000E491E93009F43C931296A415B505C1F637
:103D6000D80155963C9155973F3008F0AECF3F5F54
:103D700055963C93AACF853A910509F486C008F47C
:103D8000A6C0883A910509F0B8CFC7010E947730E4
:103D900085E0F4018183DFC9893D910509F47ACF7B
:103DA00088F4873B910509F47DC0873C910509F4AF
:103DB00095C08E3A910509F0A0CFC7010E947730D7
:103DC00089E06CC08333B1E09B0709F49DC08A335E
:103DD000E1E09E0709F482C08732914009F499C05E
:103DE0008CCF243008F489CF421708F486CF81E0C5
:103DF000D40115968C93C7010E9477307ECF233073
:103E000010F0421778F488EC90E0F70191838083FA
:103E1000128268EC70E0C7010C960E9445218DE883
:103E200093E030C0C7010E94773084E0D40111963E
:103E30008C93119781E015968C938DC9C7010E94D0
:103E40007730F401118281E0D8015B968C935B9707
:103E500084E651968C93519752961C9252975396A2
:103E60001C9279C9C7010E94773081E0F4018183F7
:103E7000F801E656FF4F8081882311F0815080833E
:103E800082E691E00E94642366C9C7010E947730F0
:103E900082E004C0C7010E94773088E0D401119607
:103EA0008C9359C9F801E656FF4F8081811125CFC7
:103EB00080EF90E0F70191838083128260EF70E0E1
:103EC000C7010C960E9445218DED92E0DBCFF601F3
:103ED000868597854496978786870FCF88ECF8016B
:103EE000EC55FF4F80837497138210820480F58114
:103EF000E02D82E0828384E18083F801E655FF4F64
:103F00001082D2011C9227C9F801E956FF4F128294
:103F1000F4CEF60186859785C29697878687818934
:103F20008F5F818BC7010E947730F801E855FF4F02
:103F30008081893010F48F5F8083F801E755FF4F4F
:103F40006081862F90E0893591050CF004C96E5F81
:103F5000608370E088EE93E00E94AB35D60119963D
:103F60006C93F9C843E0A2CEF70192819230A9F593
:103F7000F70120818181222371F021502083835019
:103F8000853008F0F0C88481823009F4ECC8C7019C
:103F90000E94E121E8C88830D9F018F4833088F411
:103FA000E2C8893009F0DFC894838AE080831282F6
:103FB000DAC8F7018181883099F140F1893009F040
:103FC000D2C888E0D70111968C93119784E116C06E
:103FD00089E0F701818384E107C0933039F4F70168
:103FE0008081882369F081508083BDC8913009F0B9
:103FF000BAC8D7018C918823E1F281508C93B3C861
:10400000C7010E94E1218AE0D701F8CF833008F48C
:10401000AAC882E084838AE0808383E08283A3C885
:1040200085E0D7CFF12CD80153968C918111B6C879
:1040300066246394F8018289882309F4AFC8612C4F
:10404000ADC8F9E0EF0EF11CD4CAF70181818330CD
:1040500008F036CB2FEFF7012183D6011E968D9104
:104060009C911F9701961F969C938E931E9787ECA9
:1040700092E00E94642324CBF701808985FF60C809
:10408000F801E057FF4F838181115AC881E0838393
:104090009CE89083F801E657FF4F1582828384E104
:1040A000808383E893E00E9464234AC882E0F82E6C
:1040B000BACFB601C8010E945C3089EA92E00E9442
:1040C000642378CB1701D7011E967C904CC862966A
:1040D0000FB6F894DEBF0FBECDBFDF91CF911F9119
:1040E0000F91FF90EF90DF90CF90BF90AF909F9097
:1040F0008F907F906F905F904F903F902F9008959A
:1041000080918B02E0918902F0918A02882349F024
:10411000CF01029690938A028093890285919491AF
:104120000895CF01029690938A028093890280813C
:104130009181089508952F923F924F925F926F92CE
:104140007F928F929F92AF92BF92CF92DF92EF9227
:10415000FF920F931F93CF93DF9300D000D000D036
:10416000CDB7DEB78C013B018EE0FB018187F80102
:10417000108E118E84E6828FFB018289F801838F75
:10418000FB01468457844114510409F44FC088232D
:1041900029F029EDA22EBB24B39404C097ECA92EDC
:1041A000BB24B3946501312CC6010E94F234481639
:1041B000590640F43394F6E0CF0ED11C83E0381258
:1041C000F3CF34C045019CE0890E911C82E0282E7B
:1041D000FE0131967F013214B0F42A94B501F6E065
:1041E0002F9E600D711D112446E050E0C7010E9412
:1041F000DA3446E050E0B401C7010E94F83486E0AA
:10420000881A9108E8CF86E0F70111928A95E9F7BC
:104210008FE38B838C838D835A82498246E050E002
:10422000B601C7010E94F834832D01C08FEFF80159
:10423000878BF3011086178242E150E067EC71E052
:10424000C8014C960E94DA3442E150E069ED71E019
:10425000C8018E960E94DA3426960FB6F894DEBF17
:104260000FBECDBFDF91CF911F910F91FF90EF90C7
:10427000DF90CF90BF90AF909F908F907F906F9086
:104280005F904F903F902F900895DC0185E0869FCE
:104290009001879F300D1124F901E458F94F549192
:1042A000F901E358F94F4491F901E258F94F94911B
:1042B000F901E158F94F8491F901E058F94F24913F
:1042C0005C9311964C93119712969C9312971396A8
:1042D0008C93139714962C930895FC01818181305F
:1042E00099F050F08230C9F4E08183E0E89FF0015A
:1042F0001124E652FF4F0FC0E08183E0E89FF001F8
:104300001124ED5BFE4F07C0E08183E0E89FF001E0
:104310001124E15EFE4F8491089580E00895FC0130
:104320008181813099F050F08230C9F4E08183E0DE
:10433000E89FF0011124E752FF4F0FC0E08183E0B6
:10434000E89FF0011124EE5BFE4F07C0E08183E09F
:10435000E89FF0011124E25EFE4F8491089580E011
:104360000895FC018181813099F050F08230C9F4C8
:10437000E08183E0E89FF0011124E852FF4F0FC075
:10438000E08183E0E89FF0011124EF5BFE4F07C05E
:10439000E08183E0E89FF0011124E35EFE4F849109
:1043A000089580E00895FC018581843019F08830FB
:1043B00021F008958381815002C083818F5F8383C0
:1043C0000895FC018381843019F0883061F017C0B2
:1043D0008481882321F0853090F481500DC081E0E4
:1043E000848388E00BC08481843028F0843039F4E1
:1043F00093E0948303C08F5F848301C083838181B2
:104400008350853018F484818D5F81830895DC01A9
:1044100083E0689FB0011124FB01E851FC4F9491A7
:10442000FB01E751FC4F8491FB01E651FC4F649185
:104430009C9311968C931197862F877013968C936B
:10444000139770E083E0759567958A95E1F712966A
:104450006C930895E1E7F0E080818D7F8083109276
:1044600091004698479810923E010895CF92DF92AE
:10447000EF92FF920F931F93CF93DF930E948020C0
:10448000811520E8920751F4DF91CF911F910F9190
:10449000FF90EF90DF90CF900C942A2221E02093A0
:1044A0003E01813020E8920751F480917902909189
:1044B0007A0290938A02809389020E94802097FD5D
:1044C00005C020917202222309F450C0209173028A
:1044D00021114CC021E020936902EC01DF77209785
:1044E00069F481E080936B0246984FE9C42E4FE057
:1044F000D42EE12CF12CCAEFD0E024C0CF3F8FE7BF
:10450000D80761F410926B0281E080936A0230EC6C
:10451000C32E31E1D32EE12CF12C14C08E0120E00A
:1045200030E060E472E48FE090E0A90198010E941D
:10453000283569017A0181E0C81AD108E108F1083B
:1045400010926B02E0917002F09171020995811155
:1045500003C081E080936B0280916902882309F493
:104560003FC080916B0281113BC003C01092690271
:10457000B4CF469935C0479A0E948020009771F0C9
:104580009C01DE010E947C35DC01CB0129E0B59560
:10459000A795979587952A95D1F703C08FEF9FEF41
:1045A000DC01109290002AE020939100D0929900B3
:1045B000C092980080936C0290936D02A0936E025B
:1045C000B0936F0280917100826080937100DF91DF
:1045D000CF911F910F91FF90EF90DF90CF900895B2
:1045E0004798CACF1F920F920FB60F9211242F93A4
:1045F0003F934F935F936F937F938F939F93AF936B
:10460000BF93EF93FF9380916C0290916D02A09104
:104610006E02B0916F02892B8A2B8B2BE9F180916E
:104620006B02811118C080916A02882349F0809141
:104630009800909199000F9790939900809398001B
:1046400098B180E4892788B980916902882319F09C
:1046500088B1805888B980916C0290916D02A091C8
:104660006E02B0916F02181619061A061B06DCF4CA
:1046700080916C0290916D02A0916E02B0916F02D8
:104680000197A109B10980936C0290936D02A093E8
:104690006E02B0936F0207C080916A02811110927E
:1046A0006A020E943622FF91EF91BF91AF919F91D4
:1046B0008F917F916F915F914F913F912F910F90CB
:1046C0000FBE0F901F9018959C01E1E7F0E09081DC
:1046D0009D7F908381E080938B0230938A022093A8
:1046E000890230937A02209379020C9436222F9219
:1046F0003F924F925F926F927F928F929F92AF9272
:10470000BF92CF92DF92EF92FF920F931F93CF93BE
:10471000DF9300D000D0CDB7DEB74C013B015C0188
:1047200029E7A20EB11CD5011E96FC906C01B3EADC
:10473000CB0ED11CF6018081811110C038961081FA
:1047400011110DC0DB0115968D919C91169768E2B1
:1047500070E00E94973511E0853108F410E040E0E8
:10476000B301C4010E94832E2401BCE14B0E511CF5
:104770001401EDE62E0E311C4214530401F1D20156
:1047800013968C9113978823B1F016966C91169717
:104790006F19062E000C770B15968C911597E12C4E
:1047A00012960C912CE43DE14EE55DE1082E000CE3
:1047B000990B0E94C72CB9E04B0E511CDDCFC401F0
:1047C00041960E94D92F282FD4015596EC915597E8
:1047D00095EF9E0F54968C91953018F49FEF980F9B
:1047E00001C0982FD4015B968C91882329F0F0E0CA
:1047F000EE5AFC4EE49101C0E0E0EF1963E06E0F69
:10480000062E000C770B892F90E0283059F02930C4
:1048100091F02730B9F4E12C00E026EC3CE148E0CF
:104820005DE106C0E12C00E026E43CE145E85CE106
:104830000E94C72C0BC0E12C00E020EC3BE142E0E1
:104840005CE1F6CF42EA59E10E94452CF6018081F5
:10485000811107C0F401EC55FF4F8081882309F4D2
:10486000BCC0D50112968C91129781113EC01F9643
:10487000DC901F97D11048C01C969C911C971496F1
:104880008C911497981307C0DD24D39416968C91BD
:104890008430D1F535C08917A4F4F50185818F5F87
:1048A000858398E09683803109F41582D5011596A9
:1048B000DC90D694D6948D2D880F33E0D32ED80E6D
:1048C00023C09817ECF4F50185818F5F858394E010
:1048D0009683803109F41582D5011596DC90D69423
:1048E000D694DD0CD394D3940FC0F50194858481C4
:1048F000981306C08681843029F02BE0D22E04C0A4
:10490000D12C02C09AE0D92ED5011C968C911C970F
:1049100014968C9314976D917C91C5010C960E940E
:104920004521F5018485E281F0E0E857FE4FE491EE
:10493000D5011D966C911D971E969C91691B6E1B4F
:10494000B2E1BD1520F0E0E1DE1658F02BC0F4E135
:10495000FD1578F12DEED20E20E030E040E458E174
:104960002CC0643209F049C193EF980F9F3308F0CF
:1049700044C124E0D21609F421C12D1538F0DD2000
:1049800009F41CC192E0D91215C118C1A8E0DA16C9
:1049900009F414C1BAE0DB1609F410C1E6E0DE1236
:1049A00009C10CC1F0EFDF0E20E030E04AE658E12B
:1049B00004C020E030E040E050E0F401EC55FF4F4F
:1049C00090819A509B3530F4D30153969C91992352
:1049D00009F428C1112309F415C1F301828981303A
:1049E00009F52A143B04F1F0D1018C918823B1F030
:1049F00015960C91159714966C9114976F19062EB5
:104A0000000C770B13968C91E02E2CED35E140E6EF
:104A100056E1082E000C990B0E94C72CB6E02B0E15
:104A2000311CDFCF40E4B301C4010E94832EF301A7
:104A3000838981113EC0F401E655FF4F80818823B0
:104A400009F443C0E12C00E02EE735E14CEA55E1E2
:104A50006EE170E082E090E00E94C72CD301519695
:104A60001C91812F64E60E948B35282F44E555E187
:104A700067E270E086E090E00E94452C2AE0812FFA
:104A8000622F0E948B35192F0E948B35292F44E508
:104A900055E167E270E08BE090E00E94452C212F09
:104AA00044E555E167E270E080E190E00E94452C2A
:104AB0001CC0E12C00E020EF33E140E554E167E168
:104AC00070E087E290E00E94C72CF4018281882385
:104AD00061F0E12C00E022E633E148EA53E167E1CE
:104AE00070E08EE290E00E94C72CE12C00E02EEEF8
:104AF00034E140E255E160E070E086E690E00E943B
:104B0000C72CD30150968C91833050F02CED34E1BA
:104B100044EE54E16AE070E086E690E00E94C72C23
:104B2000F3018089823060F0E12C00E02CED34E16B
:104B300044EE54E16AE070E08EE690E00E94C72CFB
:104B4000D30150968C91882361F0E12C00E02CED8C
:104B500034E144EE54E16AE070E086E790E00E94C0
:104B6000C72C19821A821B821C82F30186859785C5
:104B7000FE0131966E0125E0C20ED11C2AE030E024
:104B8000B9010E9497358193CB01EC15FD05C1F762
:104B900009E610E0D6012E916D0142EB54E163E08D
:104BA00070E0C8010E94452C0B5F1F4F0D371105A7
:104BB00089F749C09FEF4EE457E103C090E04CE312
:104BC00057E1482E880F55088BEFC82EE12C00E0E6
:104BD00010E020E063E270E0F201E90FF11D97FDC3
:104BE000FA95CF010E94122A2D2D40EC58E164E283
:104BF00070E0C2010E94452CF0CE20E637E140EC87
:104C000058E1DBCE062E000C770B082E000C990B1A
:104C10002115310511F42D2DEDCFED2C0D2D0E9418
:104C2000C72CDBCEF401EB55FF4F20812F3F09F459
:104C3000D4CE2150062E000C770B46EE56E1082EFE
:104C4000000C990BD7CF0F900F900F900F90DF9122
:104C5000CF911F910F91FF90EF90DF90CF90BF9079
:104C6000AF909F908F907F906F905F904F903F900C
:104C70002F9008955F926F927F928F929F92AF9242
:104C8000BF92CF92DF92EF92FF920F931F93CF9339
:104C9000DF93EC01635F7F4F7C0130E9E30EF11C91
:104CA000D70112967C936E93119787589F4FFC0102
:104CB00073876287B196728361837A8F698F9E0151
:104CC00026573F4F15963C932E9314970E942830F9
:104CD000FE01E956FF4F81E082837496808332970C
:104CE00083E480838E0108551F4F84E0D8018C93A4
:104CF000359789EC8083F701138210820480F58157
:104D0000E02D82E0828384E18083FE01E655FF4F3F
:104D100010826E01F3EACF0ED11CD6011C92CE0197
:104D20000E940B307E01BCE1EB0EF11C5E01EDE652
:104D3000AE0EB11CAE14BF0459F4712C8BE4882E56
:104D4000912CA12CB12C99E0592E6624639436C085
:104D5000D7011C9260E0C70105960E940722F70167
:104D600013821482F9E0EF0EF11CE4CF791689F179
:104D7000848D681750F5861B8E3058F50E94833459
:104D8000A50194010E942835645CF8012081FE0190
:104D900090E09213EBCF5E9CC0015F9C900D1124BC
:104DA0007E01E80EF91ED7015C966C9381968C0FFC
:104DB0009D1F0E940722F701678E7394D8018C9182
:104DC000781650F4E72CF12CD9CF362F381B832FCF
:104DD000D3CF9F5F3996DDCFD6011C9285E0F801D5
:104DE00080831A82DF91CF911F910F91FF90EF90F6
:104DF000DF90CF90BF90AF909F908F907F906F90FB
:104E00005F9008952F923F924F925F926F927F92A0
:104E10008F929F92AF92BF92CF92DF92EF92FF92CA
:104E20000F931F93CF93DF93CDB7DEB728970FB6BD
:104E3000F894DEBF0FBECDBF5C018B01FC01838DFA
:104E40006501811104C0FCE1CF0ED11C03C02EE22C
:104E5000C20ED11CF80145805680EAE08E2E912CBE
:104E6000F3E0EF2EF12C20E045E453E1B401C7015B
:104E70000E94452CFAE0EF0EF11C2FEF821A920AE5
:104E800031E7E316F10479F766E3862E912C7FE093
:104E9000E72EF12C20E045E453E1B401C7010E9464
:104EA000452C8AE0E80EF11C91E0891A9108EDE7A3
:104EB000EE16F10479F7A5014C5E5F4FF5016189AB
:104EC000C8010E94232EA5014B5E5F4FF501628948
:104ED000C8010E94232EA5014A5E5F4FF501638938
:104EE000C8010E94232EF8018581968165E070E05B
:104EF0000E949735892BC9F4F50181898D3810F40A
:104F00008F5F01C080E0F501818B82898D3810F4BC
:104F10008F5F01C080E0F501828B83898D3810F4AA
:104F20008F5F01C080E0F501838BE12C00E023E777
:104F300030E14BED51E162E170E08DE190E00E94E3
:104F4000C72C27E63EE04CE65FE063E070E086E1D8
:104F500090E00E94C72C760108E110E03E01F7E0E6
:104F60006F0E711C9E012F5F3F4F1901C701029602
:104F700098878F8354E2852E912CEF81F8852191BB
:104F8000F887EF832F3311F0205401C020E041ED6A
:104F90005DE0B801C4010E94552CF6E08F0E911C13
:104FA00026E38216910449F778866F8241E4842EC5
:104FB000912CF10126E011922A95E9F7F701808101
:104FC0009181F1016AE070E00E9497358193CB01F5
:104FD0006E167F06B9F7EF81F8852291F887EF8387
:104FE000255E41ED5DE0B801C4010E94552CF5E05D
:104FF0008F0E911C2FE582169104D9F6075F1F4F83
:1050000036E0E30EF11C0333110509F0AFCFF501D3
:1050100007890F3F09F46BC0C20168E270E00E948B
:105020009735853108F463C0C601F6E00F9F800D07
:10503000911D11249C012E5F3F4F290139E0039FF0
:1050400080011124480187E1880E911CF501608CD4
:10505000F6E06F9E30011124730123E2E20EF11C91
:1050600039E2630E711C015E1F4F6E147F04F1F074
:10507000640197FE02C0C12CD12CC8010134110576
:1050800014F080E490E0C816D90664F480E8E816CD
:10509000F10424F4B601C7010E94112E9FEFC91A32
:1050A000D90AEBCFEFEFEE1AFE0ADFCFF501808DC4
:1050B000F201E80FF11D20812F3311F0205401C0BF
:1050C00020E0F5016789F9E06F9FB0011124685E67
:1050D0007F4F36E0839FC00111243BEFC32EE12CAC
:1050E00000E010E041ED5DE084960E94122AF50197
:1050F00087898F3F79F4828D81110CC0E12C00E00B
:105100002BE43DE04DE85DE065E370E080E390E096
:105110000E94C72CE12CF501038D2DEA3CE041EE05
:105120005CE06BE170E082E090E00E94C72C289682
:105130000FB6F894DEBF0FBECDBFDF91CF911F91A8
:105140000F91FF90EF90DF90CF90BF90AF909F9026
:105150008F907F906F905F904F903F902F90089529
:10516000CF92DF92EF92FF921F93CF93DF93EC01E8
:10517000DB0117961C9117978B8DFE01811102C0E0
:105180007C9601C0BE962F892F3F09F47FC01596EB
:105190008D919C9116976CE070E00E9497357C0190
:1051A000892B09F088C036E0239FE00DF11D112402
:1051B000329617FF19C0888DDF01A80FB11D8C91A1
:1051C0008F5F8C93888DDF01A80FB11D8C918B357B
:1051D00014F081E48C93888DDF01A80FB11D8C91B0
:1051E000803411F481E48C9314FF10C0888DDF01AA
:1051F000A80FB11D8C9181508C93888DDF01A80F71
:10520000B11D8C91813414F48AE58C9315FF05C08F
:10521000888D882311F08150888F16FF05C0888DF6
:10522000823010F48F5F888F13FF45C080818F33E9
:1052300009F441C081818F3309F43DC082818F33ED
:10524000D1F16F01F60161916F012F898B8D882358
:1052500019F089ED91E002C087EC91E0F6E02F9F14
:10526000800D911D112497012E5F3F4F820F931FD8
:105270000E9408353FEFE31AF30A43E0E416F10415
:1052800009F78FEF8F8B84E68A8F15C018969C9153
:105290001897909591239C7041F08A8D811105C0DB
:1052A00062E0CD0145960E946C2E15FD1B8E16FF07
:1052B00002C081E08B8F1076898D1036E1F58F5F0B
:1052C000898F853108F445C08D3310F18D3309F095
:1052D00040C0198E83E884BD8FEF87BD81EF809336
:1052E00080001092880010928A000E94D42D42E122
:1052F00050E067EC71E0CE014C960E94DA3442E156
:1053000050E069ED71E0CE018E960E94DA3421C042
:1053100020E430E0F901E81BF109CF01880F93E8A0
:1053200094BD9FEF97BD91EF9093800010928800FD
:1053300080938A000EC0882361F083E884BD8FEFDC
:1053400087BD81EF809380001092880010928A00C0
:10535000198E8A8D882311F081508A8FDF91CF9129
:105360001F91FF90EF90DF90CF900895809174028D
:1053700008950895FC01DB0183E050968C935097CB
:105380001F961C921E921E9781E051968C93519706
:1053900053961C9226EB39E23093710220937002EF
:1053A00010927302109272028093730284E0838BD6
:1053B000148A158A128A8BE69EE10C9464230F935B
:1053C0001F93CF93DF93EC018B01FB0180858095C8
:1053D0009781892391F08989882311F08CE7898B43
:1053E000898981110DC08EE690E00E9481308CE2A7
:1053F00090E00E94813081E0898B8989882369F05F
:105400008F5F898B8D3749F462E0C8014596DF9143
:10541000CF911F910F910C946C2EDF91CF911F9122
:105420000F9108954F925F927F928F929F92AF92C9
:10543000BF92CF92DF92EF92FF920F931F93CF9381
:10544000DF9300D000D0CDB7DEB7DC0148014115B5
:10545000510509F406C2FA01F490319684914E5F29
:105460005F4FAF2CB12C211102C0EE2061F101E0A1
:1054700010E0982F977011F400E010E0982F9695A7
:1054800096959695090F111D0A9DF0010B9DF00D43
:105490001A9DF00D112413E0712EC71003C0EE0FFA
:1054A000FF1F0AC08114910439F0EE9E8001EF9E27
:1054B000100D1124800E911E2E9F80012F9F100D24
:1054C0001124400F511F1FEFC11208C08114910415
:1054D00019F0CC24C39402C022E0C22EFD01EA0DD3
:1054E000FB1D1E161F060CF0BCC1A038B1050CF048
:1054F000B8C19B01280F311D121613060CF0B1C163
:10550000603471050CF0ADC14115510509F4A9C114
:10551000362F37708B0177FF02C0095F1F4F93E072
:10552000159507959A95E1F7202F77FF04C033234F
:1055300011F02FEF200FB7FF05C0002711270A1B1E
:105540001B0B02C000E010E0E038F1051CF090E811
:105550009A1B01C09F2D901B622F022E000C770B0F
:105560002F3F1CF4E62EE09401C0E12CF1E0E82F7F
:10557000E77009F4F0E0869586958695F80F6F0F31
:10558000711D6930710514F0F8E0F21BFE192E0D43
:1055900060E82603A00DB11D1124A00FB11FFE9CD1
:1055A000000D111D1124400F511F61E070E07B01BF
:1055B000032E02C0EE0CFF1C0A94E2F773E0C7163C
:1055C00009F407C17C15C8F081E0C81609F4B9C018
:1055D000E2E0CE1246C18FEF8E9D80018F9D100DAF
:1055E0001124009510951C830B839C80BD0164578A
:1055F0007D4F2B018F2E820E2DC06AEF762EC714A1
:1056000009F43BC01BEFC1122CC1BD0164577D4F93
:105610004B01DF2ED20E83C084918E9D60018F9D41
:10562000D00C1124DA82C98227FD05C0DB018C91E0
:105630008023C82ACC92311113C031966F5F7F4FFF
:105640008E2F841B891740F32F5F4A0D5B1DB0E836
:105650004B0E511C281509F404C1B201FA01F0CF18
:1056600027305CF76B01B0E8CB0ED11CD6018C91D2
:1056700089217A8087298C93E0CFBD0164577D4FC3
:105680004B01DF2ED20E2D1509F4EBC0B401FA0147
:105690008E2F841B8917F0F484918E9D80018F9D3D
:1056A000100D11241A83098327FD04C0DB018C919E
:1056B000082B0C93332351F0273044F48B0100580E
:1056C0001F4FD801CC908A818C298C9331966F5FC3
:1056D0007F4FDECF2F5F4A0D5B1DB0E88B0E911C14
:1056E000D2CF84918E9DB0018F9D700D11247A834D
:1056F000698327FD05C06095D8018C9168236C9360
:10570000311113C031960F5F1F4F8E2F841B8917E5
:1057100040F32F5F4A0D5B1DB0E88B0E911C2D15D9
:1057200009F49FC08401FA01F0CF27305CF7B8017B
:1057300060587F4F8A818095DB01CC908C218C93BF
:10574000E1CF080D191DA457BD4F7F2E720E2715EE
:1057500009F487C0BD01C12CD12CC91690F5F80100
:10576000EC0DFD1DE491EE9D4001EF9D900C112488
:10577000809490949C828B82FA01EC0DFD1DE49143
:10578000EE9D2001EF9D500C11245A82498227FD85
:1057900005C0FB018081882248284082332359F0CC
:1057A00027304CF4FB01E058FF4F90808C81892119
:1057B0009A8089298083FFEFCF1ADF0A6F5F7F4FBE
:1057C000CCCF2F5F4A0D5B1D0A0D1B1DA058BF4F8C
:1057D000BECFC92ED12C2801440E551EA457BD4F53
:1057E00060E870E04B018C189D08AC18BD08AA0C4D
:1057F000BB1CC92E022F192F2F2FF201A401B501B6
:10580000732ECF93DF93ED01EF96EF96229685905E
:10581000A590772059F08E9C4001AE9C5001073036
:105820002CF4D880B094DB20D928D99200233AF008
:10583000DC90A094DA20D828DD920C94202C1196CC
:105840001A9529F72A9551F01C2D03951124E60F7E
:10585000F11DA40FB11DC40FD11DD9CFDF91CF9180
:1058600011240F900F900F900F90DF91CF911F9107
:105870000F91FF90EF90DF90CF90BF90AF909F90EF
:105880008F907F905F904F900895CF92EF920F93FB
:105890001F933AEFC32EE12C00E010E00E94122A81
:1058A0001F910F91EF90CF900895CF92EF920F93A9
:1058B0001F9332E0C32EE12C00E010E00E94122A78
:1058C0001F910F91EF90CF9008950F931F93CF9357
:1058D000DF93EC0120E045E45EE161E170E08FE2FE
:1058E00090E00E94552C20E047E25EE16AE170E022
:1058F0008BE290E00E94552C20E047E25EE16AE1F5
:1059000070E089E490E00E94552C898920E08111A3
:1059100015C047E25EE16AE170E08AE390E00E9430
:10592000552C20E047ED5DE16EE270E08AE190E009
:10593000DF91CF911F910F910C94552C49EB5DE1B4
:105940006AE170E08AE390E00E94552C20E046E98D
:105950005DE16EE270E08CE290E00E94552C898956
:105960006FE00E948B35082F0370CFE4D0E010E089
:10597000011741F061E370E0CE010E94112E1F5F1C
:105980002296F6CFDF91CF911F910F910895CF927C
:10599000EF920F931F93F901202FCC24C3948F0112
:1059A0000E94122A1F910F91EF90CF900895EF92CD
:1059B0000F931F93CF93DF93EC0120E040E550E27B
:1059C00066E070E084E190E00E94552C0BE010E06E
:1059D00020E041E450E262E370E0C8010E94452CFF
:1059E000045F1F4F0737110599F79B89E12C0C893C
:1059F00027EF3FE149E050E269E270E0E3E3F0E0E5
:105A0000DF01A91BB109CD010E94C72C8B8990E051
:105A10000D8927EF3FE149E050E269E270E0C3966B
:105A20000E94C72C8A89823859F400E025EE3EE1B5
:105A30004DE65FE16EE270E086E190E00E94C72CE7
:105A4000DF91CF911F910F91EF900895F89487E720
:105A50008093000880930108A89588E180936000F6
:105A600088E080936000FFCFEF92FF921F93CF9367
:105A7000DF93EC017B01FB018781108510951823D2
:105A800084FF08C08989803118F48F5F898B03C037
:105A90000E94262D198A8A898F3180F0F70185812D
:105AA00080FD0CC08B89863248F48F5F8B8BF701A9
:105AB0008581968183709927892BF1F0812F8C70D5
:105AC00061F013FB882780F991E08927F701828B29
:105AD00064E0C70145960E946C2E17FD02C0107647
