:100000000C9443180C946B180C946B180C946B188C
:100010000C946B180C946B180C946B180C946B1854
:100020000C946B180C946B180C946B180C946B1844
:100030000C946B180C946B180C946B180C946B1834
:100040000C946B180C946B180C946B180C946B1824
:100050000C946B180C946B180C946B180C94D72F91
:100060000C946B180C946B180C946B180C946B1804
:100070000C946B180C946B180C946B180C946B18F4
:100080000C9421300C946B180C946B180C946B1816
:100090000C946B180C946B180C946B180C946B18D4
:1000A0000C946B180C946B180C946B18D5F08D1481
:1000B000A1C881CFD9F1AF200045120445140445F1
:1000C0001604451804451A04451C04451E04452021
:1000D00004452204452404452604452804452A04F1
:1000E000452C04452E044530044532044534044370
:1000F00034014134013F34013D3501393501373593
:10010000013535013336013136012F36012D3601E7
:100110002B36992C13042C15042C17042C19042CA1
:100120001B042C1D042C1F042C21042C23042C251F
:10013000042C27042C29042C2B042C2D042C2F04F4
:100140002C31042C33042C35012C3701293701279D
:1001500037012537012337011F38011D38011B38AE
:1001600001193801173801153999121304121504B1
:10017000121704121904121B04121D04121F041278
:100180002104122304122504122704122904122B1D
:1001900004122D04122F04123104123304123504F8
:1001A0001237041239011139010F39010D39010BD0
:1001B0003A01093A01073A01053A01033A01013BC4
:1001C00001FF3D01FF3F01FF4101FF4301FF4501E9
:1001D000FF4701FF4901FF4B01FF4D01FF4F01FFA9
:1001E0005101FF5301015302035302055302075308
:1001F000020954020B54020D54020F54021154020E
:100200001355021555021755021955021B55021DAB
:1002100056021F5602215602235602255602275720
:10022000022957022B57022D57022F57023158022D
:100230003358023558023758023958023B59023DAB
:1002400059023F5902415902435902455A02475A3D
:1002500002495A024B5A024D5A024F5B02515B024D
:10026000535B02555B02575B02595C025B5C025DAB
:100270005C025F5C02615C02635D02645E02655F5A
:100280000265610265630265650265670265690270
:10029000656B02656D02656F0265710265730263CD
:1002A00073016173015F73015D74015B74015974C3
:1002B000015774015574015375015175014F750152
:1002C0004D75014B7501497601477601457601432D
:1002D00076014176013F77013D77013B7701397720
:1002E000013777013578013378013178012F7801B2
:1002F0002D78012B790129790127790125790123AD
:100300007901217A011F7A011D7A011B7A01197A7C
:1003100001177B01157B01137B01117B010F7B0111
:100320000D7C010B7C01097C01077C01057C01032C
:100330007D01017E010180010182010184010186AC
:1003400001018801018A01018C010000040B794A36
:1003500001180D794A001C0F794A000C11784900E8
:100360000C137849000C157849000C177849000CDB
:10037000197849000C1B7748000C1D7748000C1FAA
:100380007748000C217748000C237748000C25762D
:1003900047000C277647000C297647000C2B764740
:1003A000000C2D7647000C2F7546000C3175460069
:1003B0000C337546000C357546000C377546000C3D
:1003C000397445000C3B7445000C3D7445000C3FEE
:1003D0007445001C417445001C437343001C457365
:1003E00043001C477343000C497343000C4B734399
:1003F000000C4D7242000C4F7242000C51724200D0
:100400000C537242000C557242000C577141000CA3
:10041000597141000C5B7141000D5D714100055D3A
:100420006F3F0C035D6D3D0C035D6B3B0D035D6920
:10043000390D035D67370C035D65350C035D633370
:100440000D035D61310D035D5F2F0C035D5D2D0CB0
:10045000035D5B2B0D035D592900465B5929004E56
:10046000595828004C575828004C555828004C53D0
:100470005828004C515828004C4F5727004C4D57D6
:1004800027005C4B5727005C495727005C475727DC
:10049000005C455626005C435626005C415626000B
:1004A0005C3F5626005C3D5626005C3B5525005CB3
:1004B000395525005C375525005C355525005C33E2
:1004C0005525005C315424005C2F5424005C2D54CD
:1004D00024004C2B5424004C295424004C27532333
:1004E000004C255323004C235323004C215323005D
:1004F0004C1F5323004C1D5222004C1B5222004C17
:10050000195222004C175222004C155222004C1353
:100510005121004C115121004C0F5121004C0D5123
:1005200021004D0B512100490B4F1F0C030B4D1D9A
:100530000C030B4B1B0D030B49190D030B47170C39
:10054000030B45150C030B43130D030B41110D0356
:100550000B3F0F0C030B3D0D0C030B3B0B0D030B63
:1005600039090D030B37070C030B35050C030B334F
:10057000030D030B31010D030B2F000C030B2D009A
:100580000C030B2B000D030B29000D030B27000C94
:10059000030D2400002A0D2400000E0F2400000C7F
:1005A000112400000C132400000C152400000C176B
:1005B0002400000C192400000C1B2400000C1D2436
:1005C00000000C1F2400000C212400000C23240038
:1005D000000C252400000C272400000C2924000016
:1005E0000C2B2400000C2D2400000C2F2400000CE8
:1005F000312400000C332400000C352400000C379B
:100600002400000C392400000C3B2400000C3D2485
:1006100000000C3F2400000C412400000C43240087
:10062000000C452400000C472400000C4924000065
:100630008C4B2400008C4D21000B044F1F000B0C31
:10064000511E000B0C531D000B0C551D000F0055C7
:100650001D000F00551D000F00551D000F00551DFA
:10066000000F00551D000F00551D000F005F150005
:100670000F005F15000F005B150013005B150013E2
:10068000005F170014005F170014006419001400C5
:1006900064190014006419001400581D0114005856
:1006A0001D021400581D031400542A041400542A77
:1006B000051400542A061400583207140058320852
:1006C0001400583209140059340900005934090142
:1006D000005B340903005D340905005F340907003D
:1006E00061340909006334090300653409050067B2
:1006F0003409070069340909006B340903006D34BB
:100700000905006F340907007134090900733409C1
:1007100003007534090500773409070079340909A5
:10072000007B340903007D340905007F340907008C
:100730008134090700551E000B00571F010B005B99
:1007400021030B005D23050B005F26080B006129C8
:100750000B0B00632C0E0B006530120B006733157A
:100760001000693315110069331512006933151231
:100770000069331512006933151200693315120030
:100780006933151200693315120069331512004DD3
:1007900024000B004F24000B005124000B005325B4
:1007A000000B005525000B005725010B005B2603AD
:1007B0000B005D26050B005F27080B0061280B0B63
:1007C0000063290E0B00652B120B00672E1510001D
:1007D0006933151100693315120069331512006968
:1007E000331512006933151200693315120069338D
:1007F00015120069331512006933151200C7340948
:100800000100633409010063340900006334090006
:100810000061330902005F310904005D2E09060002
:100820005B2C090800592A090200572809040055C1
:1008300026090600532409080051220902004F210D
:100840000904004D220906004B2409080049240927
:10085000020047240904004524090600432409082E
:100860000041240902003F240904003D2409060038
:100870003B24090800392409020037240904003503
:1008800024090600332409080031240902002F241A
:100890000904002D240906002B2409080029240935
:1008A000020027240904002524090600232409083E
:1008B0000021240902001F240904001D2409060048
:1008C0001B220908001920090200171E0804001540
:1008D0001C070600131A0608001118050A000F1657
:1008E000040A000F14030A000F13020A000F11017B
:1008F0000A000D0F000A000B0E000200090E000492
:1009000000070E000600050E000800030E0002009E
:10091000030E000C00030E000C00030E000D00037C
:100920000E000D00030E000C00030E000C00030E61
:10093000000D00030E000D00030E000C00030E005E
:100940000C00030E000D00030E000D00030E000C42
:1009500000030E000200010E000400FF0E0006005E
:10096000FD0E000800FB0E000200F90E000400F767
:100970000E000600F50E0008007924000004FCFEBD
:10098000FFFFFFFFFFFFFFFFFFFFFFFFFFFFFFFF77
:10099000FFFFFFFFFFFEFEFC070F1F1F1F1F1F1F94
:1009A0001F1F1F1F1F1F1F1F1F1F1F1F1F1F1F1F57
:1009B0001F0F1A0D00FC02FAFAAAAA02F2FA2AF292
:1009C00002B2BAEA6A021AFAE21A02FC000000074E
:1009D000080A0A0A0A080A0A090A080A0A0A090881
:1009E000080A0A080807000000FC02FAFA22FA02C4
:1009F000F2FA2AF202FAFA2AD202FAFA8AF202FC8D
:100A000000000007080A0A090A080A0A090A080A6F
:100A10000A090A080A0A0A0A08070000FCFCFCFC8A
:100A2000FCFCFCFCFCFCFCFCFCFCFCFCFCFFFFFFFD
:100A3000FFFFFFFFFFFFFFFFFFFFFEFCF8010101CB
:100A40000101010101010101010101010101010196
:100A5000010103070F0F0F0F0F0F0F070301210CE9
:100A6000000078281000782850007858001048209E
:100A700000104820000078FC8ED6DAD68EFC780074
:100A80000000000000000000000000000000000066
:100A90000000000000000001020505050505020137
:100AA00000000408022905023E09093E3F25251AD7
:100AB0001E2121123F21211E3F2525213F05050131
:100AC0001E21293A3F04043F213F21001021211F0C
:100AD0003F040A313F2020203F02023F3F02043FF3
:100AE0001E21211E3F0909061E21112E3F0909362C
:100AF00022252519013F01011F20201F0F10201F53
:100B00003F10103F3B04043B03043807312D2321E1
:100B10001E29251E223F2000322929261221251AAE
:100B20000C0A3F08172525191E252518013905032C
:100B30001A25251A0629291EFCFEFFFFFFFFFFFFCD
:100B4000FFFFFFFFFFFFFFFFFFFFFFFFFFFFFFFFB5
:100B5000FFFFFFFFFFFFFFFFFFFFFFFFFFFFFFFFA5
:100B6000FFFFFFFFFFFFFFFFFFFFFFFFFFFFFFFF95
:100B7000FFFFFFFFFFFFFFFFFFFFFFFFFFFFFFFF85
:100B8000FFFFFFFFFFFFFFFFFFFFFFFFFEFEFCFF7A
:100B9000FFFFFFFFFFFFFFFFFFFFFFFFFFFFFFFF65
:100BA000FFFFFFFFFFFFFFFFFFFFFFFFFFFFFFFF55
:100BB000FFFFFFFFFFFFFFFFFFFFFFFFFFFFFFFF45
:100BC000FFFFFFFFFFFFFFFFFFFFFFFFFFFFFFFF35
:100BD000FFFFFFFFFFFFFFFFFFFFFFFFFFFFFFFF25
:100BE000FFFFFFFFFFFF01030707070707070707CF
:100BF0000707070707070707070707070707070785
:100C00000707070707070707070707070707070774
:100C10000707070707070707070707070707070764
:100C20000707070707070707070707070707070754
:100C300007070707070707070707070703571300F3
:100C4000FC0202F2F2F282F2F2F202F2F2F202C2DA
:100C5000E2F2121252624202F2F2F282F2F2F20274
:100C600002E2F29292122202C2E2F23212127222D4
:100C700002C2E2F2125212F2E2C202F2F2F21212D4
:100C8000F2F2E202F2F2F292921202E2F292921284
:100C9000220202FC000000FF00005F5F5F005F5F58
:100CA0005F005F5F5F00172F5F50515F2F5F005F36
:100CB0005F5F005F5F5F002C5C5151535F2E001738
:100CC0002F5F585050582E00172F5F5050505F2FF5
:100CD00017005F5F5F01015F5E58005F5F5F50520A
:100CE000500C5C5151535F2E0000FF0000000102C8
:100CF00002020202020202020202020202020202D4
:100D000002020202020202020202020202020202C3
:100D100002020202020202020202020202020202B3
:100D200002020202020202020202020202020202A3
:100D30000202020202020202020202020202020293
:100D400002010000FFFFFFFFFFFFFFFFFFFFFFFFAC
:100D5000FFFFFFFFFFFFFFFFFFFFFFFFFFFFFFFFA3
:100D6000FFFFFFFFFFFFFFFFFFFFFFFFFFFFFFFF93
:100D7000FFFFFFFFFFFFFFFFFFFFFFFFFFFFFFFF83
:100D8000FFFFFFFFFFFFFFFFFFFFFFFFFFFFFFFF73
:100D9000FFFFFFFFFFFFFFFFFFFFFFFFFFFFFFFF63
:100DA000FFFFFFFFFFFFFFFFFFFFFFFFFFFFFFFF53
:100DB000FFFFFFFFFFFFFFFFFFFFFFFFFFFFFFFF43
:100DC000FFFFFFFFFFFFFFFFFFFFFFFFFFFFFFFF33
:100DD000FFFFFFFFFFFFFFFFFFFFFFFFFFFFFFFF23
:100DE000FFFFFFFFFFFFFFFFFFFFFFFFFFFFFFFF13
:100DF000FFFFFFFFFFFFFFFFFFFFFFFFFFFFFFFF03
:100E0000FFFFFFFFFFFFFFFFFFFFFFFFFFFFFFFFF2
:100E1000FFFFFFFFFFFFFFFFFFFFFFFFFFFFFFFFE2
:100E2000FFFFFFFFFFFFFFFFFFFFFFFFFFFFFFFFD2
:100E3000FFFFFFFFFFFFFFFFFFFFFFFFFFFFFFFFC2
:100E4000FFFFFFFFFFFFFFFFFFFFFFFFFFFFFFFFB2
:100E5000FFFFFFFFFFFFFFFFFFFFFFFFFFFFFFFFA2
:100E6000FFFFFFFF03030303030303030303030362
:100E70000303030303030303030303030303030342
:100E80000303030303030303030303030303030332
:100E90000303030303030303030303030303030322
:100EA000030303030303030303030303482200FCB8
:100EB000060202020202020202020202020202020E
:100EC0000202020202020202020202020202020202
:100ED00002020202020202020202020202020202F2
:100EE00002020202020202020202020202020202E2
:100EF00002020206FC0000FF0000000000000000EB
:100F000000000000000000000000000000000000E1
:100F100000000000000000000000000000000000D1
:100F200000000000000000000000000000000000C1
:100F3000000000000000000000000000FF0000FFB3
:100F400000000000000000000000000000000000A1
:100F50000000000000000000000000000000000091
:100F60000000000000000000000000000000000081
:100F70000000000000000000000000000000000071
:100F800000000000FF0000FF8000000000000000E3
:100F90000000000000000000000000000000000051
:100FA0000000000000000000000000000000000041
:100FB0000000000000000000000000000000000031
:100FC000000000000000000000000080FF000000A2
:100FD0000101010101010101010101010101010101
:100FE00001010101010101010101010101010101F1
:100FF00001010101010101010101010101010101E1
:1010000001010101010101010101010101010101D0
:101010000101010100000B08878F9DB7E7C7A5D725
:10102000AF978D0000000000000000000306080BD1
:101030000E1113FCFEFFFFFFFFFFFFFFFFFFFFFF8F
:10104000FFFFFFFFFFFFFFFFFFFFFFFFFFFFFFFFB0
:10105000FFFFFFFFFFFFFFFFFFFEFC3F7FFFFFFFE4
:10106000FFFFFFFFFFFFFFFFFFFFFFFFFFFFFFFF90
:10107000FFFFFFFFFFFFFFFFFFFFFFFFFFFFFFFF80
:10108000FF7F3F28100000F80404040404E4242433
:10109000C404C42424C404E40404E40444A4244490
:1010A00004E4A4A4240404040404F8000000001FC1
:1010B0002020202020272121202027212127202314
:1010C00024242320222425222027242424202020F5
:1010D00020201F0000FCFEFFFFFFFFFFFFFFFFFFC0
:1010E000FFFFFFFFFFFFFFFFFFFFFFFFFFFFFFFF10
:1010F000FFFFFFFFFFFFFFFFFFFFFFFFFFFFFFFF00
:10110000FFFFFFFFFFFFFFFFFFFFFFFFFFFEFC3FB3
:101110007FFFFFFFFFFFFFFFFFFFFFFFFFFFFFFF5F
:10112000FFFFFFFFFFFFFFFFFFFFFFFFFFFFFFFFCF
:10113000FFFFFFFFFFFFFFFFFFFFFFFFFFFFFFFFBF
:10114000FFFFFFFFFFFFFF7F3F3A100000F804049E
:10115000040404C424A4A404C42424C404E44484CF
:1011600044E404E4A4A424040404C42424C404E43F
:101170000404E404E4A4A42404E42424C40404042F
:101180000404F8000000001F202020202023242435
:10119000232027212127202720202027202724241F
:1011A0002420202023242423202122242320272418
:1011B0002424202721212620202020201F00000475
:1011C0000406090F060A0F0F08090D0F0A090B0F75
:1011D0000F03020F0F070D0D0D0F0A0E0E010D0F5D
:1011E000030E0B0B0F07050F0F143E7E7F7F3F1E74
:1011F0000C080700143C363A160C00FCFEFFFFFFFB
:10120000FFFFFFFFFFFFFFFFFFFFFFFFFFFFFFFFEE
:10121000FFFFFEFC000103030303030303030303B7
:1012200003030303030303030303030100190A0079
:10123000FC02020202020202020202020202020294
:10124000020202020202FC00000001010101010190
:10125000010101010101010101010101010101007F
:1012600000040406090F060A0F0F08090D0F0A09EA
:101270000B0F0F03020F0F070D0D0D0F0A0E0E01BE
:101280000D0F030E0B0B0F07050F0FFCFEFFFFFFEB
:10129000FFFFFFFFFFFFFFFFFFFFFFFFFFFFFFFF5E
:1012A000FEFC3F7FFFFFFFFFFFFFFFFFFFFFFFFF92
:1012B000FFFFFFFFFFFFFF7F3F171000FC0202FA56
:1012C0008202FAAA027A827A02FAAA02FA82020256
:1012D000FC00003F404040404040404040404040D3
:1012E000404040404040403F0040E8FCFCFCFCFCEB
:1012F000DCBBFFFDFFFBB870F0F0F0F070200000E9
:1013000000000000000001010101010103030303CB
:101310000303010000002070F0F0F0F070BBFFFD4F
:10132000FFFBB8DCFCFCFCFCFCE840000001030314
:10133000030303030101010101010000000000009B
:101340000090F8F8F8F8F8F8F8FBFFFFFFFBF8F862
:10135000F8F8F8F8F8F89000010101010101010125
:1013600001010101010101010101010100160A0051
:101370004048586858488890B3D5B390102060A072
:1013800060202000000000000000000000000000BD
:1013900000000101010101010000000000202060A7
:1013A000A060201093B5D3B0908848586858484042
:1013B0000000000001010101010100000000000027
:1013C00000000000000000009090B0D0B09090901D
:1013D000B3D5B3909090B0D0B09090900000000042
:1013E00000000000000000000000000000000000FD
:1013F000000000070B066B9DFBDE0A0000000604E0
:1014000002040000009DFBDE000000000604020054
:1014100000000000FB0000000000000400000000CD
:1014200000000000000000000004000000000000B8
:10143000F8000000000000000000000000000300B1
:10144000000000000000000000080CF4FEFEFFFF9A
:10145000FFFEEC0E0F0F0F0F0F0E0E080CECFEFF31
:10146000FFFFFEFEF40E0E0F0F0F0F0F0E0ADFFF31
:10147000FFFFFF6F040607070706006FFFFFFFFF70
:10148000DF0A00060707070604FFFFFFFFFFFFE66E
:1014900000020707070600E6FFFFFFFFFFFF000649
:1014A00007070702001FFFFFFFFFFF660002070795
:1014B00007060066FFFFFFFFFF1F00060707070282
:1014C000001FFFFFFFFFFF26040607070706002691
:1014D000FFFFFFFFFF1F000607070706041FFFFFB0
:1014E000FFFFFF660006070707020066FFFFFFFF1A
:1014F000FF1F00020707070600FFFFFFFFFFFFE6D1
:1015000004060707070702E6FFFFFFFFFFFF0207CA
:101510000707070604E2FFFFFFFFFF3A0006070781
:101520000702003AFFFFFFFFFFE20002070707067E
:101530000056FEFEFFFFFFDE0000050F1F0F1DDE41
:10154000FFFFFFFEFE561D0F1F0F0500000A0D00D6
:10155000004094BCB6FAD68C40000000000005099B
:1015600005080000FE4094BCB6FAD68C4010070077
:10157000000005090508000E0D000018ACF46C7899
:10158000A80000000000000008060B070101000091
:1015900000000000000000000080C0C0A070E0401B
:1015A00000000000000A0A0703050305000100000F
:1015B000000080008000808080008040C0800000AB
:1015C00000040200030709070F050E0300070B00C4
:1015D0000ADEFB9D6B0600040204060000066B9DFC
:1015E000FBDE0A00000006040204004A1EDBFDEBDD
:1015F0002640000002040600004026EBFDDB1E4AE8
:10160000000006040200000A1EDBFDEB660000007D
:1016100002000600000066EBFDDB1E0A000006006B
:101620000200000A1EDBFDAB2600000402000600DB
:10163000000026ABFDDB1E0A000006000204000AC3
:101640001EDBFDEB6600000006000200000066EBFA
:10165000FDDB1E0A000002000600004A1EDBFDEB57
:101660002640000402000202004026EBFDDB1E4A79
:10167000000202000204004022EBFBEB22100000FB
:1016800006000200001022EBFBEB224000000200EB
:1016900006000054BCB6FAD60C0000000509050887
:1016A000000CD6FAB6BC5400080509050000001469
:1016B00014000000C03804C2796551516579C20434
:1016C00038C000000038C40213E4E9A2D735E5E5CC
:1016D00035D7A2E9E41302C438000C050A08090D45
:1016E0000A010101010A0D09080A050C00000000A9
:1016F00000C03844DAE5F9C5338A74887080000088
:101700000000000043249B0706973379381010002F
:1017100080010608F000060D0F07000809060D0FEE
:10172000070008060908000E010000008070887498
:101730008A33C5F9E5DA4438C000000000F0080635
:1017400001800010103879339706079B244300006E
:1017500000010E000809060800070F0D0609080021
:10176000070F0D0600C03008087CF4C21D2B416B2A
:10177000412B9EC47C080830C00738C012C4E8E280
:10178000F7F56565F5F7E2E8C412C03807000C0507
:101790000A08090D0B010101010B0D09080A050CCE
:1017A00000000000C0380402D9A511B115A1C2047F
:1017B00038C000000078848203CFCFECF1E2646689
:1017C000E4F2E9CCC703828478000C050A08090D0D
:1017D0000B010101010B0D09080A050C00000000B6
:1017E000C03804C2796551516579C20438C000001F
:1017F0000070888403C4D982385482D682543881D8
:10180000C403848870000C050A08090D0B0200004F
:10181000020A0D09080A050C00000000C03804C2C5
:10182000796551516579C20438C000000038C4029E
:1018300013E4E9229745256525478229E41302C46C
:1018400038000C050A0809080305080D08050308F7
:10185000080A050C0000000000C020109010C8A469
:101860002272CAAA4A02E408F00018648847307954
:10187000FEFC7132254A2C09877108040300000020
:101880000000020504080A05010101010000000032
:1018900000E8182090C8C8C424844830A020204004
:1018A0004040800000C38142BDDB5ABD66007EC35C
:1018B0007E81FF665A4224817E070804090B0B0BC8
:1018C0000C090A0C050404020202010000D0F8F819
:1018D000F0F8F8F8FCFCFCF8F0E0E0E0C0C0C080F4
:1018E00000000087CF87FFFFFFFFFFFFFFFFFFFF25
:1018F000FFFFFFFFFFFFFFFEFC0F1F3F1F3F3F3FAC
:101900003F3F3F3F3F1F1F1F0F0F0F0703010016F1
:101910001600D030402090908848089060404040A9
:1019200080808000000000008702847BB7B57BCCFC
:1019300001FC86FD02FECCB4844902FC00000F11BC
:101940000813171617181214190A090904040402B7
:10195000010000000000C0E0F0F8F8F8FCFEFFFF16
:10196000FFFFFFFFFEFCF8F0187CFEFFFF7FFFFF8C
:10197000FFFFFFFFFFFFFFFFFF7F0F0703000000D8
:101980000102070F0F1F1F0F0703030301000000D1
:101990000000151500000000C020109010C8A422FF
:1019A00072CAAA4A02E408F0000018648847307935
:1019B000FEFC7132254A2C098771080403000000DF
:1019C000000000020504080A0501010101000000F1
:1019D00000000000000080F0F8FCFEFFFFFFFFFFAA
:1019E000FFFEFCF8F08000000070F8FCFFFFFFFF36
:1019F000FFFFFFFFFFFFFFFFFFFFFFFFFCF870008F
:101A0000193F1F3F3F3F3F3F170707173F3F3F3FEC
:101A10003F1F3F190016160000000080700884F276
:101A2000CAA2A2CAF2840870800000000000708878
:101A30000427C8D245AE6ACACA6AAE45D2C82704CE
:101A40008870000000190A1411131B150203030209
:101A5000151B1311140A190000387CFEFFFFFFFE4E
:101A60007C38000000010101000000090900385421
:101A700082D6825438000000000000000000000000
:101A8000384CC2928664380000000000000000005C
:101A9000000038648692C24C38000000000000004C
:101AA000000000B8014B00FF7F0200008000000131
:101AB000000001000001000001FF0304FF0304FE19
:101AC0000506FE0506FF0708FF0708070D06070DB8
:101AD000060B0E040B0E040D10010E100112120362
:101AE0001312031514051514051616071718070AFF
:101AF00000090000020000020000020000020003D2
:101B000002000602000902000C02000F020012028D
:101B100000140200000900000000000000000000A6
:101B20000000010303010303010505010505010789
:101B300007010707010009DC00B400DC005A00DCE3
:101B4000005A00DC00B400DC00B4001501B400DC75
:101B500000B4001501B400DC00B4000080000204F1
:101B60000608090A0A0B0B0C0C0C0D0D0D0D0D0DC2
:101B70000D0D0D0D0D0D0C0C0C0B0B0A09080604B8
:101B800002007F4A027D4A027B4A02794A02774A72
:101B900002754A02734A02714A026F4A026D490293
:101BA0006B4902694902674902654900634900615E
:101BB00049005F49005D49005B49005949005748A9
:101BC000005548025348025148024F48024D48020E
:101BD0004B480249480247480245480143470141F2
:101BE00047013F47013D47013B470139470137471F
:101BF000013547023347023147022F46022D460284
:101C00002B4602294602274602254600234600218C
:101C100046001F46001D46001B450019450017459C
:101C2000001545021345021145020F45020D4502FC
:101C30000B45020945020744020544010344010122
:101C40004401FF4401FD4401FB4401F94401F74410
:101C500001F54401F34302F14302EF4302ED430275
:101C6000EB430200000288011400AF001400008062
:101C70002C003200210032003700320000801003B7
:101C80003200930232000B023200700332005D0119
:101C9000320026013200EE0132000080B8014B0014
:101CA000EE014B002A024B00100396006E029600D4
:101CB0000080E402F20100009000E4022200000033
:101CC0004800E402220000004800E402B1000000E5
:101CD0006C00E402690000002400E40246000000F9
:101CE00048003F03690000002400A40369000000CD
:101CF0002400DC030A040000FB00DC036900000090
:101D000024005504460000004800DD0446000000A1
:101D1000480075055D0200002400750522000000E2
:101D200048007505220000004800750522000000EB
:101D3000B3005504B1000000240075054600000002
:101D40004800C8057500000018007D066900000005
:101D50002400C80569060080AF0014008801140043
:101D6000008010033200930232000B023200700335
:101D700032005D01320026013200EE013200C40063
:101D80003200A500320083003200DC003200570030
:101D90003200490032008000320080003200000032
:101DA0001400800032000000140080003200008027
:101DB000181E1000190100050F0C18042418053C0A
:101DC00018060943001342001D4100274000313F1F
:101DD000003B3E00453D00092F03152F01212F0137
:101DE0002D2F01392F01452F01174B01234B01578F
:101DF00050015F50016B50017750016349016F49F9
:101E0000017B49016B500E573F01633F016F3F015A
:101E10007B3F01FB6C01166C01226C012E6C0132C0
:101E20006C014F6C01005C000A5D00145E001E5FD7
:101E3000002860003261003C62004663005064008C
:101E40005A65007170027D70020A85001484001EBC
:101E500083002882003281003C8000467F00507E53
:101E6000005A7D00647C00094A035B6A03FC2F0171
:101E70000024070044891444882845883C4688503B
:101E800047886448887849885B0A0A55000B007ABD
:101E90000C007A4D000000FFFFFFFFFFFFFFFFFF78
:101EA000FFFFFFFFFFFFFFFFFFFF0000000000003C
:101EB000000000F0F8F0F0F0F0F0F8F01402030386
:101EC00000030303000303030003030300030303EE
:101ED00000030707000707070007070700070707B2
:101EE000000707070007FFFFFFFCFCFCFCFCFFFFEF
:101EF000FFFFFFFFFFFFFFFFFFFFFFFF07070701D8
:101F00000101010107070725200000000000000073
:101F100000000000000000000000000000000000C1
:101F200000000000000000000000000000000000B1
:101F3000000000008040200C1A1ECCC0828A36E4CB
:101F40008444A84818D09010202020404040808031
:101F50008000003048482502040000000000000016
:101F60000101030307070F0C1C1838337E78F4CAED
:101F7000C582810E7CE0010100000000000000002D
:101F80000000000000000000000000000000000051
:101F900000000000000101030307070F0C00000010
:101FA0000000000000000000000000000000000031
:101FB0000000000000000000000000000000000021
:101FC0000000000000000000000000CC1A1ECCC081
:101FD000828A36E48444A84818D0901020202040FB
:101FE00040408080800000000000804042340813A0
:101FF000200000000101030307070F0C1C183833F1
:102000007E78F4CAC582810E7CE0010100000001E7
:1020100002020100000000000000000000000000BB
:102020000000000000000000000101030307070F8B
:102030000C00000000000000000000000000000094
:102040000000000000000000000000000000000090
:102050000000000000000000000000000000000C74
:10206000DA1ECCC0828A36E48444A84818D0901086
:1020700020202040404080808000000000000000C0
:1020800000000000887B08000101030307070F0C14
:102090001C1838337E78F4CAC582810E7CE00101B9
:1020A000000000000000000000010202010000002A
:1020B000000000000000000000000000000101031B
:1020C0000307070F0C0000000000000000000000E4
:1020D0000000000000000000000000000000000000
:1020E00000000000000000000000000000000000F0
:1020F0000000000C1ADE0CC0828A36E48444A84832
:1021000018D09010202020404040808080000000A7
:102110000000000000000000000020139869058105
:1021200007070F0C1C1838337E78F4CAC582810E5D
:102130007CE0010100000000000000000000000041
:102140000001020201000000000000000000000089
:10215000000101030307070F0C000000000000004E
:10216000000000000000000000000000000000006F
:10217000000000000000000000000000000000005F
:10218000000000000000000C1A1E4CC0028A36A499
:102190000444A84818D0901020202040404080805F
:1021A00080000000000000000000000000000000AF
:1021B000080402056893876C0C1838337E78F4CADB
:1021C000C582810E7CE001010000000000000000DB
:1021D00000000000000000000000000000000000FF
:1021E00000000000000101030307070F0C25180081
:1021F0000000008040C08020A0A0202020A020D08F
:10220000D09010101010109050906868C88808087E
:102210000808080800000000017B0301080C0D0FEE
:102220000E0D0E1D1818191B1E1C1A1D1A19181038
:1022300010303133363C38343A00000000314F4121
:10224000200000000000000000000000000000006E
:1022500000000000000000000000000000001C283A
:10226000000000000000000000000000000000006E
:102270000000008080C0C060603030180000008026
:1022800080C0C060603030B8188C6CE6C68383E1D3
:1022900019E4168C8C98587418B43C190120222625
:1022A0001C1816090E0904040403030301010100AC
:1022B00000000000887B0800000000000000000013
:1022C000000000000000000000000000000000000E
:1022D00001020201000000000000000000000000F8
:1022E0000000000000000000000000003F1000009F
:1022F0000000000000000000F018D85818D8D818C6
:10230000D8D818D8D818F87880C0C0C0C0C0C0C00D
:10231000C0C0C0C0FE03DBDB03DBCB03DBDB03DBC6
:102320005B03FFFF00000000000000000020000031
:10233000202000202020203F0036160036360036B0
:1023400032003636003F0036160036360036320090
:102350003636003F00363200363600361600363646
:10236000003F3F20202000202020002013080000F4
:102370007C54440078147800485424000C700C00FD
:102380000000007C107C00781478007C1468007CCD
:10239000443800000910000000000000000000F0B8
:1023A00008D0D010101008F00C14004210000044A7
:1023B00010004008010020D089A8A8A8A988B08CE6
:1023C000D3200002050B0F0A0A0A0A050200008842
:1023D0002000000842000044100220D088A8A8A9CC
:1023E000A888B08CD3200002050B0F0A0A0A0A0540
:1023F000020000820010440000104200080020D0BB
:1024000088A9A8A8A889B08CD3200002050B0F0AC0
:102410000A0A0A05020000421000004410000008E9
:102420004100408091285060115860B18040000107
:1024300003070F0F0F0F070301000088200000089B
:10244000420000441002408090285061105860B053
:102450008140000103070F0F0F0F07030100004128
:102460000800001044000010420040809128506194
:10247000105860B18040000103070F0F0F0F0703D2
:10248000010000000000008040800000000000808B
:1024900040582E2F2F96954A800003040A0A0D0DEE
:1024A0000D0E0E0B05030910000048B0CCB0420021
:1024B00000F008DFDB151B1F08F0000080E862C099
:1024C000D00000F008DFD41B141F08F0000080E8E3
:1024D00072C0D00000F008DFD41B141F08F0000009
:1024E00002B058A4F00000F008DFDF151E1F08F04E
:1024F000091B0000805C7B5C0000000609102020A6
:102500002010080000000000000000000000000093
:102510000000000000000000805C7B5C0000000602
:10252000C91020202010080000FF0000000000005B
:10253000000401000000000000000000805C7B5CE3
:1025400000000006C910A0202010080000FF00FFB6
:102550000000000000040104010000000000000071
:10256000805C7B5C00000006C910A020A010080061
:1025700000FF00FF00FF000000040104010401004F
:1025800000000000805C7B5C00000006C910A020F9
:10259000A010C80000FF00FF00FF00FF00040104BE
:1025A0000104010401001A20000000000000008066
:1025B0004018B4BC180008D0B02040808000000053
:1025C00000006090904A0408010000000003070C1E
:1025D0003973E898141415D3D6140C1800000000B1
:1025E0000000000000000000000000000103071CC4
:1025F00038F3CD940A0A000000000000000000003B
:1026000000000000000000000000000001030F1E99
:102610000000000000000000009834BC180008D042
:10262000B020408080000000000000000000808496
:10263000681026010003070C3973E898141415D3A9
:10264000D6140C180000000304040200000000006F
:10265000000000000103071C38F3CD940A0A0000B3
:10266000000000000000000000000000000000006A
:102670000000000001030F1E000000000000000029
:102680000018B4BC180008D0B020408080000000C2
:10269000000000000000000000000040DE43070CC6
:1026A0003973E898141415D3D6140C1800000000E0
:1026B00000000000000C1310080000000103071CBC
:1026C00038F3CD940A0A000000000000000000006A
:1026D00000000000000000000000000001030F1EC9
:1026E00014020100000001000000010000000100D0
:1026F00000000100000014030200000002000000BE
:102700000200000002000000020000000B0BF8387D
:1027100078E8D0A000A0100C0C07040404050707FB
:1027200007000000F83878E0C8A4438300000007E1
:10273000040404050707070000000B1300FE4848C7
:102740004848484848FE0000FF9292929292929226
:10275000FF0000030000000000000003001910014A
:10276000010705050703030303030303030303032F
:102770000303070505070404000000000000000033
:102780000000000000000000000000000000000049
:1027900000040407050507030303030303030303FE
:1027A0000303030307050507010100000000000003
:1027B0000000000000000000000000000000000019
:1027C00000000001010705050703030303030303DA
:1027D00003030303030307050507010100000000CD
:1027E00000000000000000000000000000000000E9
:1027F000000000000001010F0B0A0E060606040C83
:102800000C0C081818181870505070404000000048
:1028100000000000000000000000000000000000B8
:102820000000000000000000404070505070181878
:102830001818080C0C0C040606060E0A0B0F0101F2
:102840000000000000000000000000000000000088
:1028500000000000000000000001070B0A0E060443
:102860000C0C08181810303020E06040C000000048
:102870000000000000000000000000000000000058
:102880000000000101010101000000000000000043
:10289000C04060E0203030101818080C0C04060E00
:1028A0000A0B070100000001010101010000000006
:1028B0000000000000000000000000000019362C9D
:1028C000183060C080000000000000000000000020
:1028D00000000000000000000000000000010306EE
:1028E0006CD8B06080000000000000000000000014
:1028F00000000000000000000000000000000000D8
:1029000080C06030182C3619000000000000000064
:1029100000008060B0D86C060301000000000000D9
:10292000000D08252D39312931252D393129312145
:102930000C08627A7A62627A7A62627A7A620B0848
:10294000878F9DB7E7C7A5D7AF978D0208D4D2056B
:10295000087F7F3E1C084120FE0105F1F1F111D1F5
:10296000B1D111F151515151515151515151515117
:1029700051510000FF00007F7F09090F06007F7F93
:1029800019396F46007F7F4949414100266F494907
:102990007B3200266F49497B32FF0000FFFFFFFEBC
:1029A000FFFEFF0279CD95A5CD790111111101F935
:1029B000F901010000FF00007F7F09090F06007F79
:1029C0007F40404040007C7E0B0B7E7C00070F78F0
:1029D000780F0700000000000000FF00001F3F3FCD
:1029E00033333333333E36363E363E363E36363E6E
:1029F00036363E360000FF00003E7F41417F3E00FC
:102A00007F7F0E1C7F7F00000000000000000000A0
:102A100000000000000000000000003F4050404067
:102A200040784641415959414141415959414141FB
:102A3000414141414100007F000001017F7F0101D0
:102A4000007C7E0B0B7E7C007F7F09090F06007FD8
:102A50007F49494141000000000000005700680123
:102A60003E006801570068013E006801AF00B400F5
:102A70009C00B400AF00B4009C00B400000019003A
:102A80009C005A0000005A009C005A0000005A00A6
:102A90009C005A0000005A009C005A0000005A0096
:102AA000C4006801B9006801C4006801A50068019C
:102AB000AF005A00A5005A00AF005A00A5005A0006
:102AC000AF005A00A5005A00AF005A00A5005A00F6
:102AD000AF00EE020080FFFFFFFFFFFFFFFFFFFFE1
:102AE000FFFFFFFFFFFFFFFFFFFFFFFFFFFFFFFFF6
:102AF000FFFFFFFFFFFFFFFFFFFFFFFFFFFFFFFFE6
:102B0000FFFFFFFFFFFFFFFFFFFFFFFFFFFFFFFFD5
:102B1000FFFFFFFFFFFFFFFFFFFFFFFFFFFFFFFFC5
:102B2000FFFFFFFFFFFFFFFFFFFFFFFFFFFFFFFFB5
:102B3000FFFFFFFFFFFFFFFFFFFFFFFFFFFFFFFFA5
:102B4000FFFFFFFFFFFFFFFFFFFFFFFFFFFFFFFF95
:102B5000FFFFFFFFFFFFFFFFFFFFFFFFFFFF44102F
:102B6000000000000000BC7EC7EBEDEBC77EBC00A0
:102B7000003C2C00381438000824100004380400ED
:102B80000000000000BC7EC1D5D5D5CB7EBC0000C6
:102B90003C103C00381438003C1428003C24180039
:102BA000000000000000000000000001020202021C
:102BB0000201000000000000000000000000000012
:102BC00000000000000000000000010202020202FA
:102BD00001000000000000000000000000000000F4
:102BE0000000000000000000387CFEFFFFFFFE7CBC
:102BF000380000000101010000000909003854827A
:102C0000D6825438000000000000000000000038A8
:102C10004CC29286643800000000000000000000F2
:102C20000038648692C24C380000000000000000AA
:102C300000000D08252D39312931252D3931293153
:102C400021622BFC02FDFDFDFDFDFDFDFDFDFD02F4
:102C5000FDFDFDFDFDFDFDFDFDFD027C90E8F4FAAE
:102C6000FDFDFDFDFDFDFDFDFDFDFAF4E890FC021E
:102C7000FDFDFDFDFDFDFDFDFDF3CC02FDFDFDFDBA
:102C8000FDFDFDFDFDFDFD02DCE8F4FAFDFDFDFDB1
:102C9000FDFDFDFDFDFDFAF4E8D020C000000000C0
:102CA00000000000000001FE00FFBF7F7F3FBFBFAC
:102CB000BC7E7F7FBF7FB7CB35C20202FF00FFBF64
:102CC0007FBF7FBFFF01FE0001FF7FBF7FBF7FFF90
:102CD00000FFFE00FFBF7FBF7FBFFF7FFFBF7CB055
:102CE0007FBF7FBF7FBFFF00FE00FFBF7FBF7FBFF3
:102CF000FF00FE0EECAB6BAB6BAB6BEB0CF30000B1
:102D000000000000000000F008F7B0DFAAD0800348
:102D1000354E7D6F15FAAFD5AAD7AED9B6F40FF000
:102D20008F7AD5AAD5AADFB8D7B4D8AFD5AAD5EAB5
:102D30007D8FF00FF7B0DFAAD5AAD5AADFB0F107D3
:102D40009D7AD5AAD5AAD5AAFF00FF40BF6AD5AA09
:102D5000D5AADFB0D7B4D3BED56A350A959F809F78
:102D60008080000000000000003B78EABA3A3A2A6E
:102D7000BA78B86B3A79EAB83A3A2ABA7ABA6A3A79
:102D800078EBB8393A28BA7ABA6A3A7AEABA3A3A69
:102D900028BA79B86B387AEABA3A3A2ABA7ABA6A69
:102DA0003A78EBBA383A2ABA7ABA6A387BE8B8394C
:102DB0003A28BA7ABA6A3A3A0A00E01C8261BCB28E
:102DC000A8A8B2BC61821CE000000004040405074E
:102DD00006050605040404040405070605060504A3
:102DE0000404040405070605060504040404040598
:102DF0000706050605040404040405070605060580
:102E00000404040404050706050605040404040478
:102E10000507060506050400001C62810972F4D14D
:102E20006B9AF2F29A6BD1F4720981621C00000075
:102E30000000000000000000000000000000000092
:102E40000000000000000000000000000000000082
:102E50000000000000000000000000000000000072
:102E60000000000000000000000000000000000062
:102E70000000000000000000000000000602050441
:102E800004060500000000050604040502060038DB
:102E90007CFEFFFFFFFE7C38000000010101000006
:102EA00000090900385482D682543800000000001E
:102EB000000000000000384CC29286643800000018
:102EC000000000000000000038648692C24C380008
:102ED00000000000000000000003F70403F80403F2
:102EE000F90403FA0403FB0403FC0403FD0403FEDA
:102EF0000403FF04030004030102050102070102A9
:102F00000901020B01020D02020F0202110202135B
:102F100002021502021703021903021B03021D031A
:102F2000021F0302210402230402250402270402D3
:102F30002904022B05022D05022F0502310502335B
:102F400005023506023706023906023B06023D0637
:102F5000023F0702410702430702450702470702F3
:102F60004908024B08024D08024F0802510802535B
:102F700009025509025709025909025B09025D0A53
:102F8000025F0A02610A02630A02650A02670B0213
:102F9000690B026B0B026D0B026F0B02710C02735B
:102FA0000D04730F04731104731304731504731762
:102FB00004731904731B04731D04731F0473210429
:102FC0007323047123016F23016D23016B240169B5
:102FD00024016724016524016324016125015F2523
:102FE000015D25015B250159250157260155260163
:102FF0005326015126014F26014D27014B27014938
:1030000027014727014527014328014128013F287F
:10301000013D28013B2801392901372901352901C2
:103020003329013129012F2A012D2A012B2A0129B7
:103030002A01272A01252B01232B01212B011F2BDC
:10304000011D2B011B2C01192C01172C01152C0122
:10305000132C01112D010F2D010D2D010B2D010937
:103060002D01072E01052F0105310105330105351D
:1030700004053704053904053B04053D04053F04F8
:10308000054104009E3011241FBECFEFDAE0DEBF01
:10309000CDBF11E0A0E0B1E0E4E1FAE602C00590A6
:1030A0000D92AE33B107D9F726E0AEE3B1E001C02F
:1030B0001D92AF3AB207E1F718E1C3E4D8E104C0CA
:1030C0002197FE010E940235C234D107C9F70E9440
:1030D00068310C9408350C94000090E121E061FD0A
:1030E00024E060FD220F62FD2295687F969FD0014B
:1030F0001124A80FA155BD4F8C91822B8C9308955C
:10310000A8E9B2E02FB7F8947D918D919C9166B5B6
:103110002FBFA89B05C06F3F18F47F5F8F4F9F4F55
:1031200022E0660F771F881F991F2A95D1F708950F
:103130006F927F928F929F92AF92BF92CF92DF92C7
:10314000EF92FF920F931F93CF93DF934C01DB011C
:1031500058017C2D4115510509F4A0C0FA01649174
:10316000319684914E5F5F4FC62FD0E0211102C08F
:10317000EE2009F1E1E0F0E0982F977011F4F0E013
:10318000E0E0082F0695069506950E0F1F2F111DDE
:103190000C9FF0010D9FF00D1C9FF00D112473305A
:1031A00009F08BC0EE0FFF1F2E9F80012F9F100D87
:1031B0001124400F511F84010C0F1D1F1016110602
:1031C0000CF06CC0F0E88F1691040CF067C09D0104
:1031D000280F311D121613060CF060C0A034B10583
:1031E0000CF05CC04115510509F458C03A2F3770F6
:1031F000FD01B7FD379693E0F595E7959A95E1F7D0
:103200002E2FB7FF04C0332311F02FEF2E0FEE2720
:10321000FF27E819F90997FC02C0F0E0E0E090E828
:103220009819003811050CF4962F9E1BA22F022E20
:10323000000CBB0B1A2F10952F3F0CF010E0DD2473
:10324000D394082F077009F4D12C8695869586951E
:10325000D80EAD0DB11D19971CF0A8E0DA2ED21AC8
:10326000D11A210F00E82003D0011124A80DB91DA7
:10327000AE0FBF1F619FE00DF11D11244E0F5F1FA8
:10328000E32E032E000CFF08733009F424C108F567
:10329000713009F4D6C0723009F484C0DF91CF9147
:1032A0001F910F91FF90EF90DF90CF90BF90AF9064
:1032B0009F908F907F906F900895A114B10409F4AE
:1032C00073CFEE9E8001EF9E100D1124A00EB11E53
:1032D0006BCF7A3FB1F10D2D020F7B3FF9F620172E
:1032E000E9F2BD0161557D4FD12CC12CC91608F002
:1032F000A2C0FA01EC0DFD1DE491F0E04F010E2C8F
:1033000002C0880C991C0A94E2F727FD06C0FB0155
:103310008081182D109581238083332361F027301D
:1033200054F45B01F0E8AF0EB11C192D1095F501B6
:10333000808181238083FFEFCF1ADF0A6F5F7F4F89
:10334000D5CF0D2D020F201709F4A8CFBD0161556F
:103350007D4FD12CC12CC91608F067C0FA01EC0DC5
:10336000FD1DE491F0E04F010E2C02C0880C991C69
:103370000A94E2F727FD04C0FB018081882980833D
:10338000332351F0273044F45B01F0E8AF0EB11C59
:10339000F501808189298083FFEFCF1ADF0A6F5FF3
:1033A0007F4FD9CF6FEF70E0032E02C0660F771FFB
:1033B0000A94E2F760957095972E8D2C820E281551
:1033C00009F46CCF8D0101551D4FD12CC12CC916AC
:1033D00030F5FA01EC0DFD1DE491F0E03F010E2CFB
:1033E00002C0660C771C0A94E2F727FD05C0F801BD
:1033F0008081862386298083332359F027304CF43B
:103400005801F0E8AF0EB11CF501808189218729B0
:103410008083FFEFCF1ADF0A0F5F1F4FD8CF2F5FD8
:103420004C0F5D1FA058BF4FCACF2F5F4C0F5D1FC1
:10343000A058BF4F88CF2F5F4C0F5D1FA058BF4FC4
:103440004ECF85010E0F1F1F8D2D820F281709F4F7
:1034500025CFBD0161557D4FD12CC12CC91698F5E2
:10346000F801EC0DFD1DA490B12C0E2C02C0AA0C8D
:10347000BB1C0A94E2F7A094B094FA01EC0DFD1D78
:103480008490912C0E2C02C0880C991C0A94E2F7AF
:1034900027FD08C0FB017080E72DEA217E2E7828E9
:1034A000FB017082332349F027303CF4FB01E058E4
:1034B000FF4FA080BA20B928B082FFEFCF1ADF0AF1
:1034C0006F5F7F4FCBCF2F5F4C0F5D1F0C0F1D1F0A
:1034D000A058BF4FBBCFE92EF12CE40FF51FA1552B
:1034E000BD4F60E870E06E197F09CE19DF09AE01AB
:1034F000440F551FC1E0D0E07E01032E01C0EE0C49
:103500000A94EAF7192F0D2D892E932ECF93DF936E
:10351000ED01EF96EF962296A590C590992059F06F
:10352000AE9C5001CE9C600127302CF4F880D094E2
:10353000FD20FB28F99222233AF0FC90C094FC2055
:10354000FA28FD920C94A51A11961A9529F70A9556
:1035500051F0182D23951124E40FF11DA60FB11D74
:10356000C60FD11DD9CFDF91CF91112497CECF9225
:10357000EF920F931F933AEFC32EE12C10E000E07F
:103580000E9498181F910F91EF90CF900895CF92BD
:10359000EF920F931F9332E0C32EE12C10E000E076
:1035A0000E9498181F910F91EF90CF900895CF929D
:1035B000EF920F931F93F901202FCC24C3948F0116
:1035C0000E9498181F910F91EF90CF900895EF925D
:1035D0000F931F93CF93DF93EA0123E0629FB00123
:1035E0001124FB01E752F14D1491FB01E652F14D1C
:1035F0002491FB01E552F14DE491DC0115968D918A
:103600009C9165E070E00E94DA34892BA1F4E130EE
:1036100059F0E23081F48881823020F48F5F888312
:1036200008810CC080E0FBCF8881882311F0815095
:10363000F6CF82E0F4CF00E0E43091F7622F220F62
:10364000770BE12C2FE83EE241EA5EE2812F90E029
:103650000E94D71ADF91CF911F910F91EF9008959B
:10366000F89487E78093000880930108A89588E183
:103670008093600088E080936000FFCFBC0190E001
:1036800080E0AB01FC010E94801841505109E10922
:10369000F10928F068517C4F8F4F9F4FF6CFAB0157
:1036A000FC010E948018641775078E079F07C8F3F6
:1036B00008958FB18095807F669B88601C9B846095
:1036C00008958091910208950895EF920F931F93AA
:1036D000CF93DF93EC0120E041E45CE266E070E030
:1036E00084E190E00E94C71A0BE010E020E042E382
:1036F0005CE262E370E0C8010E94B71A045F1F4FEA
:103700000737110599F79B89E12C0C8928EE3BE2DC
:103710004AEF5BE269E270E0E3E3F0E0DF01A91B5E
:10372000B109CD010E94D71A8B8990E00D8928EE4E
:103730003BE24AEF5BE269E270E0C3960E94D71A6F
:103740008A89823859F400E026ED3AE24EE55BE2E0
:103750006EE270E086E190E00E94D71ADF91CF918F
:103760001F910F91EF900895CF93DF93EB0120E02D
:1037700046E559E261E170E080E290E00E94C71AFC
:103780008D819E8160E370E00E94DA34883170F4AC
:10379000C1E18C3008F0CEE120E04FE459E269E16C
:1037A00070E08BE590E00E94C71A04C0CFE184323C
:1037B00008F0C0E26C2F70E084E390E00E946D1886
:1037C000C0FD0BC020E04BE459E26CE170E08DE2FB
:1037D00090E0DF91CF910C94C71ADF91CF910895BB
:1037E00081E69BE190938E0280938D02109290026D
:1037F00010928F0281E0809390020895FC01DC0119
:10380000A256BF4F1C9211971C92139681E08C9385
:1038100011971C92139682E08C9311971C92118A37
:10382000128A138A8DE0848B138E158AE656FF4F19
:1038300084E080830895FC01E758FF4F21E027834F
:10384000BA961082319628EC2083369610827A97A9
:10385000138210820480F581E02D82E0828384E16E
:103860008083FB0180898150808B0895FC018581D4
:10387000843019F0883029F0089583818150838342
:10388000089583818F5FFBCF2F923F924F925F927B
:103890006F927F928F929F92AF92BF92CF92DF9260
:1038A000EF92FF920F931F93CF93DF93CDB7DEB7C5
:1038B00028970FB6F894DEBF0FBECDBF5C018B0119
:1038C000FC01838D650181111DC1FCE1CF0ED11C6E
:1038D000F80145805680EAE08E2E912CF3E0EF2E21
:1038E000F12C20E046E150E1B401C7010E94B71A73
:1038F000FAE0EF0EF11C2FEF821A920A31E7E3167D
:10390000F10479F766E3862E912C7FE0E72EF12C07
:1039100020E046E150E1B401C7010E94B71A8AE0F5
:10392000E80EF11C91E0891A9108EDE7EE16F1041A
:1039300079F7A5014C5E5F4FF5016189C8010E94CE
:10394000E71AA5014B5E5F4FF5016289C8010E942D
:10395000E71AA5014A5E5F4FF5016389C8010E941D
:10396000E71AF8018581968165E070E00E94DA34FB
:10397000892BB1F4F50181898D3808F0C7C08F5FBC
:10398000F501818B82898D3808F0C2C08F5FF50107
:10399000828B83898D3808F0BDC08F5FF501838BE2
:1039A000E12C00E024E43DE04CEA5EE062E170E0FE
:1039B0008DE190E00E94D71A28E33BE04DE35CE004
:1039C00063E070E086E190E00E94D71A760108E19A
:1039D00010E09E012F5F3F4F1901370132E0630E67
:1039E000711C54E2852E912CF30121913F012F335C
:1039F00009F492C0205442EA5AE0B801C4010E947E
:103A0000C71AF6E08F0E911C26E38216910461F727
:103A10003E0137E0630E711C41E4842E912C7886C0
:103A20006F82F10126E011922A95E9F7F701808172
:103A30009181F1016AE070E00E94DA348193CB0158
:103A40002F8138852E173F07A9F7F30122913F01F7
:103A5000255E42EA5AE0B801C4010E94C71AF5E0A7
:103A60008F0E911C2FE582169104D9F6075F1F4F28
:103A700036E0E30EF11C0333110509F0AECFF5017A
:103A800007890F3F09F470C0C20168E270E00E942C
:103A9000DA34853108F468C086E0089F10011124EB
:103AA000F2E02F0E311C29E0029F80011124280131
:103AB00037E1430E511CF501608C689E30011124E2
:103AC0007301F3E2EF0EF11C29E2620E711C015E3C
:103AD0001F4FE614F70431F14201C801013411050A
:103AE00014F080E490E088169906C4F430E8E316F8
:103AF000F10424F4B401C7010E946D188FEF881AF5
:103B0000980AEBCF2EE2C20ED11CE2CE80E038CF75
:103B100080E03DCF80E042CF20E06DCF9FEFE91AFB
:103B2000F90AD7CFF501808DC20CD31CF601E80F3E
:103B3000F11D20812F3309F450C02054F50167890D
:103B4000F9E06F9FB0011124685E7F4F36E0839FDC
:103B5000C00111243BEFC32EE12C10E000E042EA4B
:103B60005AE084960E949818F50187898F3F79F46E
:103B7000828D81110CC0E12C00E02CE13AE04EE591
:103B80005AE065E370E080E390E00E94D71AE12CF0
:103B9000F501038D2EE739E042EB59E06BE170E06F
:103BA00082E090E00E94D71A28960FB6F894DEBF04
:103BB0000FBECDBFDF91CF911F910F91FF90EF907E
:103BC000DF90CF90BF90AF909F908F907F906F903D
:103BD0005F904F903F902F90089520E0AFCFDC0191
:103BE00085E0869F9001879F300D1124F901E35BEA
:103BF000FC4F5491F901E25BFC4F4491F901E15B08
:103C0000FC4F9491F901E05BFC4F84912F5A3C4F9B
:103C1000F90124915C9311964C93119712969C9301
:103C2000129713968C93139714962C930895CF9311
:103C3000DF93EC01198218821A8270E060E00C9622
:103C40000E94EF1D1A821F82188619868FEF8C83BF
:103C500088E08E83DF91CF910895FC0181818130CE
:103C600071F020F0823099F080E00895E08183E0E7
:103C7000E89FF0011124E85EF44E84910895E081FC
:103C800083E0E89FF0011124EC50F54EF6CFE0817F
:103C900083E0E89FF0011124E155F54EEECFFC01E1
:103CA0008181813071F020F0823099F080E00895B8
:103CB000E08183E0E89FF0011124E95EF44E8491F5
:103CC0000895E08183E0E89FF0011124ED50F54E66
:103CD000F6CFE08183E0E89FF0011124E255F54E34
:103CE000EECFFC018181813071F020F0823099F0BB
:103CF00080E00895E08183E0E89FF0011124EA5E0E
:103D0000F44E84910895E08183E0E89FF00111244E
:103D1000EE50F54EF6CFE08183E0E89FF0011124EC
:103D2000E355F54EEECF2F923F924F925F926F92F6
:103D30007F928F929F92AF92BF92CF92DF92EF923B
:103D4000FF920F931F93CF93DF93CDB7DEB72D97DD
:103D50000FB6F894DEBF0FBECDBF7B836A83498365
:103D6000FC01E758FF4F468420EBC22E2DE1D22EF6
:103D700034E9232E3EE1332E512C5C0127E9A20EBB
:103D8000B11CDC01AA56BF4FBD83AC83B196FF8343
:103D9000EE839C0126573F4F398728871697BB87AC
:103DA000AA874C01B1EA8B0E911C3C01EFE96E0E23
:103DB000711C2D5E3F4F3D872C87F601F4903196A4
:103DC000E49031968491E491F981F11122C0E6FFEB
:103DD00025C0F3E0CF0ED11C2C143D0471F780E018
:103DE0002D960FB6F894DEBF0FBECDBFDF91CF91F9
:103DF0001F910F91FF90EF90DF90CF90BF90AF9009
:103E00009F908F907F906F905F904F903F902F90FA
:103E1000089529812034E9F6E6FFDBCFAA81BB8132
:103E200052960C91013011F0E7FDD3CF8F718131A3
:103E300080F6E82FF0E0E15EF04E0C940235C91FE9
:103E4000DA1FD41FE61F301F3F1F5C1F661FCE1FE7
:103E5000EC1F6E1F911F991FB41FC41FA11FE01FED
:103E60008C859D850E94711E082F8C859D850E94E2
:103E70004F1E182F8C859D850E942D1E08C0C301E2
:103E80000E944F1E182FC3010E942D1E00E04DE519
:103E900057E2612F110F770B6E0D711D64197509B3
:103EA000002E000C110B282FC8018F0D911DF7FC5F
:103EB0009A950E94B71A8DCFC4010E94711E082FD7
:103EC000C4010E944F1E182FC401D6CFEA85FB857E
:103ED000838110E000E04CE057E2DBCFA885B98594
:103EE00011968C91883060F409E010E046EA55E2C2
:103EF000833078F2835010E000E047E05FE1C9CF03
:103F0000883049F0893009F064CF10E109E080E0A1
:103F10004EE552E2BECF10E100E080E04DEE51E20E
:103F2000B8CFEE81FF81808110E000E040EF54E2E5
:103F3000B0CFAC81BD818C9110E000E046EA54E244
:103F4000A8CFF5018281882309F443CF9181892F7D
:103F5000880F890F20E0923008F42081820F10E052
:103F600000E048EA53E295CF00E02AEA3EE144E966
:103F700053E26E2D70E064197509E12C8F2DFF0C52
:103F8000990B0E94D71A25CF27E93EE14CE653E270
:103F9000F0CF00E010E04EE359E27BCF00E022EDED
:103FA0003EE146EF56E2E5CF10E000E080E041E27E
:103FB00059E26FCF10E000E080E040E359E269CFC2
:103FC00010E000E080E04CEE52E263CF00E026EE2D
:103FD0003EE14AE357E2CDCF00E02CEB3EE140EE7C
:103FE00056E2C7CFFC0184818F3060F48D3070F4CD
:103FF0008B3008F59381963279F050F49D3061F062
:10400000A8F408958F30B1F789E0089588E0089505
:104010009F3360F09F33A9F78181882371F06AE0B4
:104020000E94CE3496E0981B892F089585818830B0
:1040300031F482E0089587E0089580E0089581E0FA
:1040400008952F923F924F925F926F927F928F923C
:104050009F92AF92BF92CF92DF92EF92FF920F9317
:104060001F93CF93DF9300D000D01F92CDB7DEB760
:104070004C013B015C0129E7A20EB11CD5011E9643
:10408000FC901C01B3EA2B0E311CF10180818111DF
:104090000FC03896108111110CC0DB0115968D915F
:1040A0009C9168E270E00E94DA3411E0853108F4F6
:1040B00010E040E0B301C4010E94931E2401BDE65C
:1040C0004B0E511C6401ECE1CE0ED11CC414D5047E
:1040D00001F1D60113968C9113978823B1F01696AF
:1040E0006C9116976F19062E000C770B15968C9114
:1040F0001597E12C12960C9129E53AE14BE65AE12D
:10410000082E000C990B0E94D71AB9E0CB0ED11CD7
:10411000DDCFCD82C40141960E94F21F282FD40129
:104120005596EC91559754968C9195EF9E0F95303E
:1041300008F48150D4015B969C91992309F440C006
:10414000F0E0ED5DFF4EE491EF1963E06E0F062E97
:10415000000C770B90E02830A9F12930D1F12730FD
:1041600009F03EC0E12C00E023ED39E145E15AE1E0
:104170000E94D71AF1018081811107C0F401EC552A
:10418000FF4F8081882309F4F9C0D50112969C91D4
:1041900012971C968C911C97911193C01F963C907E
:1041A0001F97311036C014969C91149789131DC027
:1041B0003324339416969C91943059F5312C29C0B0
:1041C000E0E0C2CFE12C00E023E539E142E959E12A
:1041D000CFCFE12C00E02DEC38E14FE059E1C8CF22
:1041E0004FEA56E10E94B71AC5CF98170CF055C098
:1041F000F50195819F5F958328E02683903109F42E
:104200001582D50115963C9036943694330CB3E064
:104210003B0ED50114968C9314976D917C91C5013A
:104220000C960E94EF1DF5018485E281F0E0E35ACF
:10423000F44EE491D5011D966C911D971E969C91AC
:10424000691B6E1BB2E1B31508F448C0E0E13E16ED
:1042500008F44DC0F0EF3F0E30E020E047E755E1B5
:10426000F401EC55FF4F90819A509B3530F4D30107
:1042700053969C91992309F4A8C011117FC0062E72
:10428000000C770B082E000C990B2115310509F055
:1042900071C0232D0E94B71A71C089170CF0B9CFD5
:1042A000F50195819F5F958324E02683903109F481
:1042B0001582D50115963C90369436943394330C80
:1042C000A8CFF5019481891379CF96812AE0322E07
:1042D000943009F49ECF9BE0392E9BCFF4E1F31587
:1042E00008F041C030E020E050E040E0B9CF643257
:1042F00009F05BC193EF980F9F3308F056C124E09B
:10430000321639F0231510F1332019F092E03912EA
:1043100026C090E049E454E1482E880F55088BEF01
:10432000C82EE12C10E000E020E063E270E0F20132
:10433000E90FF11D97FDFA95CF010E949818232DE2
:104340004DEC55E164E270E0C201A4CFA8E03A165A
:1043500001F3BAE03B16E9F2E6E03E16D1F29FEF38
:104360004BE554E1D9CF2DEE320E30E020E04DE4A4
:1043700055E176CFE32C032D0E94D71AF3018289F1
:10438000813099F54D805D2C4A145B0471F1D201A6
:104390008C918823B1F015960C91159714966C9119
:1043A00014976F19062E000C770B13968C91E02E44
:1043B00029EE32E14DE653E1082E000C990B0E94E4
:1043C000D71AB6E04B0E511CDFCFF401EB55FF4F6F
:1043D00020812F3F99F22150062E000C770B43EFDE
:1043E00053E1082E000C990B55CF40E4B301C401F2
:1043F0000E94931EF30183898111B9C0F401E6552F
:10440000FF4F8081882309F4BEC0E12C00E02BE837
:1044100032E149EB52E16EE170E082E090E00E940F
:10442000D71AD30151961C91812F64E60E94CE3495
:10443000282F41E652E167E270E086E090E00E94BA
:10444000B71A2AE0812F622F0E94CE34192F0E94C2
:10445000CE34292F41E652E167E270E08BE090E034
:104460000E94B71A212F41E652E167E270E080E135
:1044700090E00E94B71AE12C00E02BEF31E14DE211
:1044800052E170E060E086E690E00E94D71AD30126
:1044900050968C91833050F029EE31E141EF51E19B
:1044A0006AE070E086E690E00E94D71AF301808906
:1044B000823060F0E12C00E029EE31E141EF51E182
:1044C0006AE070E08EE690E00E94D71AD301509621
:1044D0008C91882361F0E12C00E029EE31E141EF7D
:1044E00051E16AE070E086E790E00E94D71A1982F5
:1044F0001A821B821C82F30186859785FE01319604
:104500006E0125E0C20ED11C2AE030E0B9010E9404
:10451000DA348193CB01CE16DF06C1F709E610E04D
:10452000D6012E916D014FEB51E163E070E0C801BF
:104530000E94B71A0B5F1F4F0D37110589F70F90B7
:104540000F900F900F900F90DF91CF911F910F91CF
:10455000FF90EF90DF90CF90BF90AF909F908F90A3
:104560007F906F905F904F903F902F900895E12C37
:1045700000E025ED30E149E451E168E170E083E2DB
:1045800090E00E94D71AF4018281882309F473CF46
:10459000E12C00E023E330E143E850E168E170E022
:1045A0008CE290E00E94D71A66CF2DE634E14DEC04
:1045B00055E156CEFC018381843051F08830A9F05A
:1045C00081818350853018F484818D5F81830895C3
:1045D0008481882329F0853098F781508483F0CF37
:1045E00081E0848388E08383EBCF8481843028F06A
:1045F000843031F793E09483F6CF8F5FEFCFDC0107
:1046000083E0689FB0011124FB01E754FF4F9491B0
:10461000FB01E654FF4F849165547F4FFB01649189
:104620009C9311968C931197862F877013968C9379
:10463000139770E083E0759567958A95E1F7129678
:104640006C9308950F931F93CF93DF93EC016C96B7
:104650008C0103591F4F0C171D0769F088818C3995
:1046600040F0188260E0CE0105960E94FF221B8276
:104670001C822996F0CFDF91CF911F910F91089561
:104680002091AE02E091AC02F091AD02CF01029612
:104690009093AD028093AC02222319F085919491FE
:1046A0000895808191810895E1E7F0E080818D7F18
:1046B0008083109291004698479810928C0208953A
:1046C0001F93CF93DF93EC01162F83E884BD8FEF08
:1046D00087BD81EF809380001092880010928A003D
:1046E0000E9454231883DF91CF911F910895EF9278
:1046F000FF921F93CF93DF93EC017B01FB01878136
:1047000010851095182384FF3BC089898031B0F54E
:104710008F5F898B8A898F31C0F0F70185819681FF
:1047200080FD13C02B89263280F42F5F2B8B837082
:104730009927892B51F48D89823020F58F5F8D8BDD
:104740008C89882309F181508C8B13FD1FC081E077
:1047500012FD1DC017FD02C0107629F065E0C701EB
:1047600045960E9460238A89823810F48F5F8A8B75
:10477000DF91CF911F91FF90EF9008950E94301B21
:10478000198AC8CF80E0DBCF82E0DECF80E0F7017E
:10479000828B64E0C70145960E946023DBCFCF92F5
:1047A000DF92EF92FF92CF93DF930E944023811517
:1047B00020E8920741F4DF91CF91FF90EF90DF90D6
:1047C000CF900C94542321E020938C02813020E878
:1047D000920751F480919C0290919D029093AD02BA
:1047E0008093AC020E94402397FD05C020918F0268
:1047F000222309F45BC020919002211157C021E0CF
:1048000020938502EC01DF77209709F052C081E008
:104810008093870246984FE9C42E4FE0D42EE12CB6
:10482000F12CCAEFD0E0E0918D02F0918E02099553
:10483000811103C081E080938702809185028823E3
:1048400029F080918702882309F456C047980E9476
:104850004023009709F454C09C01DE010E94BF343C
:10486000DC01CB0129E0B595A795979587952A9509
:10487000D1F7109290002AE020939100D0929900F5
:10488000C09298008093880290938902A0938A0234
:10489000B0938B0280917100826080937100DF91F0
:1048A000CF91FF90EF90DF90CF9008951092850206
:1048B000A9CFCF3F8FE7D80761F41092870281E03C
:1048C0008093860230ECC32E31E1D32EE12CF12C03
:1048D000AACF9E0150E040E060E472E48FE090E0F7
:1048E0000E946B3469017A0181E0C81AD108E1089D
:1048F000F1081092870297CF4699A8CF479AA7CF81
:104900008FEF9FEFDC01B5CF9C01E1E7F0E09081F4
:104910009D7F90831092AE02EEE9F2E0F093AD023B
:10492000E093AC02F0939D02E0939C0231832083DC
:104930008EE190E09383828380E090E89583848386
:104940000C94CF230F931F93CF93DF93EC018B0134
:10495000FB01808580959781892391F0898988233F
:1049600011F08CE7898B898981110DC08EE690E06A
:104970000E9484248CE290E00E94842481E0898B50
:104980008989882369F08F5F898B8D3749F462E0CC
:10499000C8014596DF91CF911F910F910C94602330
:1049A000DF91CF911F910F9108959C01E1E7F0E015
:1049B00090819D7F908381E08093AE023093AD0221
:1049C0002093AC0230939D0220939C020C94CF2341
:1049D000FC01DB0183E050968C9350971F961C924C
:1049E0001E921E9781E051968C93519753961C927C
:1049F00021E63BE130938E0220938D0210929002CB
:104A000010928F028093900284E0838B148A158A1F
:104A1000128A8CE59AE20C94D5240895EF92FF92C5
:104A20001F93CF93DF9300D000D000D0CDB7DEB777
:104A300064E485EC91E00E944B346BE486EC91E0F9
:104A40000E944B3487ECE82EFF24F39411E41A8281
:104A500019821E821D821B831C831D8346E050E049
:104A6000B701CE0101960E943B341F5F86E0E80E3D
:104A7000F11C8BEEE81681E0F80649F726960FB692
:104A8000F894DEBF0FBECDBFDF91CF911F91FF9095
:104A9000EF9008953F924F925F926F927F928F9224
:104AA0009F92AF92BF92CF92DF92EF92FF920F93BD
:104AB0001F93CF93DF93EC01635F7F4F8C0100570F
:104AC0001F4FD80112967C936E93119787589F4F72
:104AD000FC0173876287B196728361837A8F698FD5
:104AE0009E0126573F4F15963C932E9314970E9494
:104AF000171EFE01E956FF4F81E082837496808382
:104B0000329783E480837E01F8EAEF0EF11C84E0A3
:104B1000D7018C93FE01EC55FF4F89EC8083F8019F
:104B2000138210820480F581E02D82E0828384E18B
:104B30008083FE01E655FF4F10826E01F3EACF0E2F
:104B4000D11CD6011C92CE010E94FE1B04571109F4
:104B50005E01BDE6AB0EB11CA016B10681F0F801F6
:104B6000108260E0C80105960E94FF22D8011396CA
:104B70001C92139714961C92075F1F4FEDCF912C38
:104B80008BE4482E512C612C712C99E0892E332412
:104B90003394F70180819816F0F4A92CB12C0E946F
:104BA000C533A30192010E946B34645CD7012C9140
:104BB000FE0190E0291739F1991631F0848D6817BC
:104BC00030F4861B8E3058F39F5F3996F3CFB62FA3
:104BD000B81B8B2FF7CFF601108285E0D7018C939D
:104BE0001A82DF91CF911F910F91FF90EF90DF908C
:104BF000CF90BF90AF909F908F907F906F905F907D
:104C00004F903F9008958A9C80018B9C100D112439
:104C10000C0F1D1FF801648FCE01989C800D911D13
:104C2000112481960E94FF22D8015F963C929394B2
:104C3000B0CF2F923F924F925F926F927F928F925E
:104C40009F92AF92BF92CF92DF92EF92FF920F931B
:104C50001F93CF93DF93CDB7DEB766970FB6F89467
:104C6000DEBF0FBECDBF8C011B01DB0117965C9030
:104C700017971896BC91BA8BFC01828198012D552B
:104C80003F4F3987288781110AC6780139E7E30E3B
:104C9000F11CD70117968C91811101C6E885F98521
:104CA0008081882309F49CC0DB0115968D919C912D
:104CB00080FD5EC7F70122812111D2C03085218598
:104CC00031115DC721115DC78089F52DF074CF2E9C
:104CD000282F2074D22E86FF1CC055FE05C082FFEF
:104CE00003C0C7010E949430CC2089F0D7015096B0
:104CF0008C91509783FF0BC06D917C9111976150FF
:104D000071096D937C93C7010C960E94EF1DD52C01
:104D100037C0FF2331F053FE02C087FD04C083FD7E
:104D20007EC0D52C06C081E0F7018087C7010E94B4
:104D30009430D5FE25C0F701808982FF0AC06081CA
:104D400071816150710971836083C7010C960E9463
:104D5000EF1DF701808985FF13C0F801E057FF4F71
:104D6000838181110DC081E083839CE89083369715
:104D70001582828384E1808388E59DE10E94D524A9
:104D8000D4FE11C0D70150968C91509781FF0BC073
:104D90006D917C911197615071096D937C93C7015E
:104DA0000C960E94EF1DD7FE07C0F701808980FF97
:104DB00003C0C7010E949430F801EA55FF4F80817B
:104DC00081110EC0D3FE0CC0D70150968C9184FF88
:104DD00007C083EA9AE10E94D52481E0F70182832B
:104DE000F701A684D10115968C9180FD50C1680110
:104DF000BAE8CB0ED11CF6018581811148C19281A0
:104E0000923009F474C1933009F491C1913009F0E2
:104E10003EC18081882309F433C181505AC1D70132
:104E20008D919C91119784399105B1F481E0199687
:104E30008C9319978AED90E011969C938E9312961D
:104E40001C926AED70E0C7010C960E94EF1D82E68D
:104E50009DE10E94D52465CFC7010E94943061CFA7
:104E6000243218F42F5F2283BBCF1282B9CFD7012F
:104E70008D919C918E3E910531F5B101C8010E9442
:104E80001B1CAECFE59FF0011124E85EF44EE491C7
:104E9000E93009F0AEC63C93ACC6E59FF0011124A1
:104EA000EC50F54EF4CFE59FF0011124E155F54E9D
:104EB000EECF853A910509F497C008F4BEC0883A50
:104EC000910509F499C0C7010E94943089CF893DAA
:104ED000910599F280F4873B910509F499C0873CCC
:104EE000910509F4B1C08E3A910569F7C7010E9496
:104EF000943089E07DC08333B1E09B0709F4BBC0E7
:104F00008A33E1E09E0709F49FC087329140D9F6C9
:104F1000F10186859785C2969787868781898F5FFD
:104F2000818BC7010E949430F801E855FF4F8081C2
:104F3000893010F48F5F8083F801E755FF4F60815F
:104F4000693508F04DCF6E5F608370E088EE93E0C6
:104F50000E94EE34D10119966C9342CF233010F0A9
:104F6000421788F488EC90E0F701918380831282E5
:104F700068EC70E0C7010C960E94EF1D82E69DE18F
:104F80000E94D5242DCFC7010E94943084E0D60121
:104F900011968C93119781E015968C9321CFC701C0
:104FA0000E949430F601118281E0D8015B968C93C7
:104FB0005B9784E651968C93519752961C92529728
:104FC00053961C920DCFC7010E94943081E0F601E8
:104FD0008183F801E656FF4F8081882311F08150CC
:104FE000808387E39BE1CCCFC7010E94943082E0AD
:104FF000D60111968C93F4CEC7010E94943085E0BF
:10500000F6018183EDCEC7010E94943088E0F0CF95
:10501000F801E656FF4F8081811155CF80EF90E077
:10502000F70191838083128260EF70E0C7010C96D4
:105030000E94EF1D82EB9CE1A3CFF101868597854D
:105040004496978786873FCF88ECF801EC55FF4F51
:1050500080837497138210820480F581E02D82E0B2
:10506000828384E18083F801E655FF4F1082A88592
:10507000B9851C92B5CEF801E956FF4F128223CFB5
:10508000D6018181883039F1F0F4833048F5F80198
:105090007196FD87EC87D80154968C91863209F47D
:1050A00064C58F3309F44CC0D12C8D3009F44AC04B
:1050B000863231F0C12CDD24DA948F3309F04BC0F5
:1050C000DD24DA943FC0893011F788E0F60181834E
:1050D00084E18083DCCF85E0818384E18C93D7CF2A
:1050E00082E084838AE0808383E08283D0CF208142
:1050F0008181222361F0215020838350853038F64E
:105100008481823021F2C6010E94DA22C0CF883029
:1051100061F018F48330C8F6BACF893009F0B7CF00
:1051200094838AE080831282B2CF89E0CFCF8081DE
:10513000811173CEC6010E94DA228AE0D601CECF59
:1051400042E0D42EF8018389811104C0CC24C39499
:1051500082898111C12C0E94C5339801245E3F4F82
:105160003D832C8338013DE6630E711C23E030E063
:1051700040E050E00E946B3462307105810591057A
:1051800089F5CC2081F1EC81FD8190E0E615F705F1
:1051900059F18381882321F19F5F80818E3400F54E
:1051A0002181D212C12C8B3348F08334C8F4D2123F
:1051B00017C0DD2061F0863298F406C08E3148F0C9
:1051C000863270F4D2120CC041E0D41209C0C12C56
:1051D00007C0883028F4D21203C052E0D516B9F3C4
:1051E0003996D4CFC12C90E0F801E855FF4F80816B
:1051F000981768F5CC2059F1CC80DD806C147D04C3
:1052000031F1D60113968C91139781110FC1149629
:105210008C9181110BC10E94C53323E230E040E044
:1052200050E00E946B346B5F7F4F8F4F9F4FF601B2
:105230006483D8015896DC92CE92579752961C926E
:10524000529753966C935397645C51966C93F1010B
:105250008581968166E070E00E94DA34892B09F03E
:105260002EC1CC80DD8098012D553F4F3F872E8782
:10527000480139E7830E911C4A2D50E0598B488B29
:10528000B401645F7F4F7E8B6D8B6C147D0409F4D9
:1052900016C1D60113968C91882309F4C3C0EE85FC
:1052A000FF858081882309F44CC0D40112968C912B
:1052B000882309F446C0F601F581FC8BD6011696C9
:1052C000BC91BB8BF401608171818D899E890E94A4
:1052D000EF1DD4011296EC91F0E0E35AF44EE49104
:1052E000BC898B2FBB0F990BD4011C962C911C975A
:1052F0002817190631F51D968C911D971E969C91C5
:10530000891B8E1B082E000C990B2B892A19821BD6
:10531000910927FD93950997A4F4F60181818330C3
:1053200080F42FEF2183D1011E968D919C911F97C0
:1053300001961F969C938E931E978CE99CE10E9488
:10534000D524D4011296EC91F0E0E35AF44E849106
:10535000D10152968C91882309F46CC0813009F4F4
:1053600087C0AE85BF858C918823B1F1E491D401CB
:105370001C968C911C97082E000C990B9C01295FA0
:105380003F4F4A855B854217530734F59A012B0D31
:10539000311D8217930704F51D968C911D971E965B
:1053A0009C91891B8E1B082E000C990B9C01255F7C
:1053B0003F4F6E817F816217730774F49B01240D48
:1053C000311D8217930744F4B101C8010E941B1CD0
:1053D0008EE79CE10E94D524D6016C9117968C91A2
:1053E0001797680F6F5F6C93C60105960E94FF22A6
:1053F000F6018581811105C08681811102C010826C
:105400001382D60118968C911897813009F44FC0F9
:10541000823041F412968C91823008F046C08F5F42
:10542000F6018283F9E0CF0ED11C2FCFB9E0CB0E6D
:10543000D11CE4CED60115968C911597082E000C40
:10544000990B9C012E5F3F4F3B872A8716968C91C4
:10545000082E000C990B48895989841B950BBC01B7
:105460006E5F7F4F7F836E8335E0B32E4B2C79CFF9
:10547000D60115968C911597082E000C990B9C015E
:105480002F5F3F4F3B872A8716968C91082E000C82
:10549000990B48895989841B950BBC016F5F7F4F1D
:1054A0007F836E8327E0B22EE1CF80E0B9CF1296E2
:1054B0008C91882311F08150B3CF82E0B1CFD1011C
:1054C00052968C915297813009F082C015968D9139
:1054D0009C916AE070E00E94DA34892B09F078C070
:1054E000630193E0492EF801ED55FF4FFF83EE83F2
:1054F0004801F9E78F0E911CB12CEC14FD0409F45E
:1055000067C0D6018C91882309F45EC011962C9156
:1055100011972F5F11962C93249D90011124F9016E
:10552000EE57F44E8491F901ED57F44EA4912C57A7
:10553000344EF9012491F6018383A4832F712583CE
:10554000811104C0A11102C010821182EE81FF817D
:1055500090819923C9F1082E000C990BF401228146
:10556000E22FF0E0E35AF44E24912A87F4012485D7
:10557000022E000C330BB901695F7F4FAC014F5F06
:105580005F4F4617570704F5459628173907E4F487
:10559000B0E0AA19BB0985859685891BFA858F1B02
:1055A000082E000C990BAC01455F5F4F9D012C5FED
:1055B0003F4F2417350744F418968A179B0724F4A5
:1055C000B101C8010E941B1C26E0C20ED11C95CF60
:1055D000D10152968C91813009F05CC05801BDE632
:1055E000AB0EB11C6801E3E7CE0ED11CD5018C9146
:1055F000F6019081890FF30190E0EE16FF0649F065
:105600002081222321F02181921708F4922F3696CF
:10561000F4CF882331F0813009F03CC0933308F493
:1056200039C00E94C53322E330E040E050E00E94E0
:105630006B34672B682B692B69F5D5018C91882316
:1056400009F461C0F6018081882309F45EC08FEF00
:10565000980146E0849F200D311D1124C901F901F4
:10566000E259FF4F1082E2E8FBE13491E3E8FBE10D
:105670002491E4E8FBE1E491DC01A059BF4F3C93A5
:1056800011962C931196EF71EC93FC01E359FF4FA7
:1056900081E08083D10115968D919C91837099272B
:1056A000892BC9F4F801E057FF4F8081882399F0D6
:1056B000813069F5108213820480F581E02D82E04B
:1056C000828384E1808380918C02811104C086E60C
:1056D0009CE10E94D524F801838D882381F184897F
:1056E0008632C0F48E3030F58D30F9F0EC81FD81DA
:1056F0006E167F0609F4AFC08481882311F08150B3
:1057000084833996F5CF80E0A3CF81E0A1CF81508B
:105710008083E1CF873250F38F3360F08F3331F7DE
:1057200084E0868B8EE3848BE1CF88E0868B8EE0ED
:10573000848BDCCF8C859D850E94361CD7CF8389D6
:10574000882369F08150838B811102C088E2828BAB
:10575000F80181898823E1F18150818BC7CFD288FC
:10576000DD20B1F3DA94D28AD110F2CF8489863267
:1057700049F18F3351F1D8015796ED90FC9080910B
:10578000040190910501A091060189839A83AB835E
:10579000FE01ED0DF11D6181F7016083C7010596E2
:1057A0000E94FF22D7011196DC92119781E0139697
:1057B0008C9380918C028111CBCF80E79CE10E9479
:1057C000D524C6CFDD24D394D6CF82E0D82ED3CF34
:1057D0008489863269F108F58D3031F108F486CF7D
:1057E0008C859D850E94361CD80154968C918632FA
:1057F00029F08F3319F08D3009F078CF0E94C5332E
:1058000022E830E040E050E00E946B346A5B7F4F5A
:105810008F4F9F4FF801618B69CF8F3308F38F3320
:1058200009F064CF84E001C088E0F801868BD8CF0E
:105830000E94C53322E030E040E050E00E946B342B
:10584000672B682B692B29F484E0D80156968C933A
:10585000C7CF88E0FACFD10115962D913C91C901AF
:1058600066E070E00E94DA34892B49F4F801EA56C8
:10587000FF4F8081833008F0A8C08F5F8083C9010B
:105880006CE070E00E94DA34892B49F4F801E956A3
:10589000FF4F8081823008F09AC08F5F8083F101D2
:1058A000808998012D553F4F5901811104C091E025
:1058B000938BD9011C927801B4EAEB0EF11CF7012D
:1058C000D080F8E2DF1609F4ECC0FD1508F48EC0B4
:1058D00029E02D1508F47DC032E0D31608F0E7C0AA
:1058E00041E0D41609F4E8C0D7018C91882311F067
:1058F00081508C936801B6EACB0ED11CF6018081F1
:10590000882311F081508083D10153969C91F50139
:1059100080818111F9C09111F7C08A898095852114
:10592000F82FF870AF2E8C70B9F1D7018C918536B5
:1059300018F0C8010E942223BB24B394E885F9859E
:10594000B082F801E655FF4F1082359710823696E7
:105950001082D7011C92C80187589F4F0E94171EC2
:10596000F801E057FF4F138210820480F581E02D8B
:1059700082E0828384E18083F801E956FF4FB2829E
:10598000339680818111B7C0C8010E94FE1BAA20F6
:1059900019F084E1D6018C9366960FB6F894DEBFB9
:1059A0000FBECDBFDF91CF911F910F91FF90EF9070
:1059B000DF90CF90BF90AF909F908F907F906F902F
:1059C0005F904F903F902F90089580E057CF80E0F8
:1059D00065CF54E1D51609F468C06EE1D61609F416
:1059E00062C07AE0D71280CF81E00EC094E69D15A8
:1059F00078F0ADE3DA16E8F4B2E3DB1609F44FC051
:105A0000ECE386E0DE1270CFF801EB55FF4F0DC0DE
:105A1000F8ECFD1560F429ECD21266CF8FEFF80197
:105A2000EB55FF4F808381E0359680835DCF8FEF0C
:105A3000EBCF9FEFF801EB55FF4F908391E0359648
:105A40009083882309F450CFF1971182108212823B
:105A500070E060E0CF010C960E94EF1DC8010E942B
:105A60002223F801E656FF4F8081811104C0C8014E
:105A70000E94FE1B39CFD80151961C925197529625
:105A80001C92529753961C9253978DE054968C9388
:105A900054975B961C925B9755961C9225CF85E098
:105AA000B3CF84E0B1CF83E0AFCF82E0ADCFF801D8
:105AB000EB55FF4F108218CF882339F0C801875863
:105AC0009F4F0E94171EF501D082F801EB55FF4F42
:105AD00010823696108231971082739781E082830C
